:100000000C948A030C94B2030C94B2030C948218DF
:100010000C9482180C9482180C94B2030C94B203C2
:100020000C94B2030C94B2030C94B2030C94B2037C
:100030000C94B2030C94B2030C94B2030C94B2036C
:100040000C94FA180C94B2030C946A190C94441989
:100050000C94B2030C94BB1A0C94B2030C94B2032C
:100060000C949C190C94B203AED580A83FD30040E9
:100070008D142002A1C8DA12817FD9F1DB40A4A639
:10008000AF005EBCE2613FDD83C29C7E20A3FD1F0A
:1000900041009D23BE46DB65F88C11AF32CA57E99B
:1000A000743D3D3D3D3D3D3D3D3D3D3D3D3D3D3D49
:1000B0003D3D3D3D3D3D3D3D3D3D3D3D3D3D3D3D70
:1000C0003D3D3D3D3D3D3D3D3D3D3D3D3D3D3D3D60
:1000D0003D3D3D3D3D3D3D3D3D3D3D3D3D3D3D3D50
:1000E0000050757474696E67206974207468726F4B
:1000F000756768206974732070616365733A204482
:100100004D34494D00536F6674776172652D4465B7
:100110007369676E3A522E5769656C616E64202D63
:10012000546865206F6E6520776974686F757420F8
:10013000612063616C6C2D00486172647761726547
:100140002D44657369676E3A444C37554B4D2061B9
:100150006E6420444C345A414F000A0A0A3D3D3D2A
:100160003D3D3D3D3D3D3D3D3D3D3D3D3D3D3D3DBF
:100170003D3D3D3D3D3D3D3D3D3D3D3D3D3D3D3DAF
:100180003D3D3D3D3D3D3D3D3D3D3D3D3D3D3D3D9F
:100190003D3D3D3D3D3D3D3D3D3D3D3D00464143B9
:1001A0005720652E562E203130304B487A0047506C
:1001B00053444F2031304D487A2076312E4900008B
:1001C00000060E206000000000000000000000009B
:1001D00000000000FC00000000000D000000001EF8
:1001E000001E000000000000000020FC20FC200099
:1001F000010F010F01304888FC88300608081F08ED
:10020000071824A478100C0C020709090600B8C4CA
:100210004438800708080506090000001E00000099
:1002200000000000000000E01804020000030C10B1
:100230002000020418E0000020100C030000204001
:10024000F04020000201070102008080F080800061
:1002500000000700000000000000000000241C0057
:10026000000080808080800000000000000000000E
:100270000000000000081C0800000000E018063024
:100280000C03000000F008040408F003040808044C
:1002900003001008FC00000008080F0808180404F8
:1002A00004C438080C0A09080804044464548C0681
:1002B000080808080700C03008FC00030202020F0B
:1002C000027C24242424C4060808080807F0884473
:1002D000444480070808080807040404C4340C00D8
:1002E0000C0300000018A44444A4180708080808D8
:1002F000077884848444F806080808040300002072
:100300007020000000040E04000000606000000087
:1003100000120E00000080402010080000010204BE
:1003200008202020202020010101010101000810E7
:10033000204080000804020100180404C4241800AE
:1003400000000D0000F008E41414F80304090A0A80
:100350000BF088848488F00F000000000FFC4444F8
:1003600044A8100F0808080403F80404040418073C
:100370000808080806FC04040408F00F080808042C
:1003800003FC44444404040F0808080808FC4444DF
:100390004404040F0000000000F80404848498075B
:1003A000080808040FFC40404040FC0F000000001B
:1003B0000F000404FC04040008080F0808000000F3
:1003C00004FC04060808080700FC40A01008040FFD
:1003D000000001020CFC00000000000F08080808E3
:1003E00008FC18606018FC0F000000000FFC304093
:1003F0008000FC0F000000030FF804040404F80759
:100400000808080807FC84848484780F0000000032
:1004100000F804040404F80709090A1C27FC848472
:100420008484780F000001020C3844448484180648
:100430000808080807040404FC04040000000F0076
:1004400000FC00000000FC0708080808073CC0008A
:1004500000C03C00010E0E010000FC000000FC008A
:1004600007080708070C30C0C0300C0C030000035D
:100470000C001C6080601C0000000F00000404845D
:1004800064140C0C0B080808080000FE02020200AD
:10049000003F2020200618E0000000000000030CB0
:1004A0003000020202FE00002020203F000804026B
:1004B000020408000000000000000000000000200E
:1004C000202020202000000204080000000000007E
:1004D000004020202020C006090909090FFC402007
:1004E0002020C00F0408080807C020202020400753
:1004F0000808080804C020202040FC070808080459
:100500000FC020202020C00709090909054040F834
:1005100044440800000F000000C0202020C0201923
:10052000262A2A2910FC40202020C00F00000000AD
:100530000F000020EC00000008080F080800000071
:100540000020EC00182020201FFC00804020000F1D
:100550000101020408000004FC00000008080F0864
:100560000800E020C020C0000F0007000FE040207E
:100570002020C00F000000000FC020202020C00756
:100580000808080807E040202020C03F04080808A9
:1005900007C020202040E007080808043FE0402072
:1005A0002020C00F000000000040A02020204004B8
:1005B0000809090A042020FC202000000007080880
:1005C00004E000000000E007080808040F00E00055
:1005D0000000E00000030C030000E0008000E000E9
:1005E00007080708076080000080600C0201010214
:1005F0000CE000000000E013242424221F2020200F
:10060000A06020080C0B0808080000807C02020093
:1006100000001F2020000000FE00000000003F003E
:10062000000002027C80000020201F00000C020459
:1006300008100C000000000000FEFEFEFEFEFE3F63
:100640003F3F3F3F3F4641435720652E562E2031C6
:1006500030304B487A00475053444F2031304D489A
:100660007A2076312E49004641435720652E562E7A
:10067000203130304B487A00475053444F203130BE
:100680004D487A2076312E490048446F502000486A
:10069000446F7000202020202020200048446F500C
:1006A0003A0000000000240027002A000000000893
:1006B0000002010000030407000000000000000029
:1006C00000030C0F30333C3FC0C3CCCFF0F3FCFF32
:1006D00068001980400000000000250028002B0061
:1006E0000000000023002600290004040404040480
:1006F00004040202020202020303030303030102D1
:10070000040810204080010204081020010204089F
:100710001020C51A11241FBECFEFD8E0DEBFCDBF19
:1007200025E0ACECB2E001C01D92A73AB207E1F7B8
:1007300012E0A0E0B1E0E4E8F3E702C005900D921A
:10074000AC3CB107D9F713E0CAE8D3E004C0219765
:10075000FE010E94C233C938D107C9F70E94501D5B
:100760000C94C0390C94000080919505E091960599
:10077000F0919705F8949181282F209592239183E9
:1007800078943DE743E050E0315029F1DA011197C8
:10079000F1F790819823C1F3F89492819223928388
:1007A0009181982B91837894ABE7B7E01197F1F79B
:1007B000F894918192239183A3E1B1E01197F1F72D
:1007C0009081982381E009F080E07894E3E6F6E0F8
:1007D0003197F1F7089580E0089590919505E091A3
:1007E0009605F0919705292F209580FF14C0F89465
:1007F0008281822382838181892B8183A3E2B0E07D
:100800001197F1F78281982B9283789487ED90E08D
:100810000197F1F70895F894828182238283818180
:10082000892B8183AFEFB0E01197F1F78281982B8C
:10083000928378948FE090E0EBCFFF920F931F9319
:10084000CF93DF93F82E062FC8E0D0E011E081E0CF
:100850009F2D912309F480E00E94ED03110F219751
:10086000B1F7011113C0F894E0919605F091970546
:10087000918180919505809598239183E0919605CB
:10088000F09197059281892382837894DF91CF91AB
:100890001F910F91FF900895CF93DF9360E085E55E
:1008A0000E941D04C1E6D4E060E089910E941D040D
:1008B00084E0C936D807C1F7DF91CF9108958091C0
:1008C0009505E0919605F0919705F8949181982B04
:1008D00091832281382F309523232283A7E0B0E033
:1008E0001197F1F7918193239183A3E2B0E01197DF
:1008F000F1F790817894EFECF0E03197F1F79823DD
:1009000081E009F480E0089508950895FF920F931F
:100910001F93CF93DF938C01DC011596CC91159733
:10092000D0E0DC2FCC2714968C9190E00896C80F6D
:10093000D91FF12C2F2D30E080913B0590913C0583
:10094000DC01ED91FC910190F081E02D2C173D0729
:1009500090F4200F311FD9016C91099580913B05CE
:1009600090913C05DC01ED91FC910680F781E02D32
:100970000995F394DFCF6DE0099580913B05909147
:100980003C05DC01ED91FC910680F781E02DDF91C3
:10099000CF911F910F91FF900994CF93DF93FC01AA
:1009A000858190E0982F88272481820F911DA2E0F5
:1009B00050E040E09C012A5F3F4F6A2F70E06217D1
:1009C000730740F46E0F7F1FEB016881460F540FD1
:1009D000AF5FF3CF2E0F3F1FD9014C93E80FF91FE4
:1009E0005783DF91CF9108952F923F924F925F925C
:1009F0006F927F928F929F92AF92BF92CF92DF922F
:100A0000EF92FF920F931F93CF93DF931B012C0163
:100A1000CA01B90120E030E044E353E40E94E53329
:100A20006B017C0120E030E040EA51E40E94513447
:100A30000E94CA34662E70E090E080E00E94CB31C4
:100A400020E030E040EA51E40E942C329B01AC01EE
:100A5000C701B6010E94E4334B015C0120E030E0A5
:100A600040E05FE30E942C320E94CA34062F20E04F
:100A700030E044EB52E4C201B1010E94E5336B0166
:100A80007C0120E030E040E251E40E9451340E94B9
:100A9000CA34762E70E090E080E00E94CB3120E0F6
:100AA00030E040E251E40E942C329B01AC01C701CE
:100AB000B6010E94E4336B017C010E94CA34162FF8
:100AC000CBE3D5E081E4860D8D8781E4870D8E87A9
:100AD00080E3800F8F8780E3810F888B602F70E029
:100AE00090E080E00E94CB319B01AC010E94E53395
:100AF0009B01AC01C501B4010E94E43320E030E069
:100B000040E451E40E942C320E94CA346F5B698B2E
:100B1000612F70E090E080E00E94CB319B01AC013E
:100B2000C701B6010E94E43320E030E040EC51E41C
:100B30000E942C320E94CA346F5B6A8B1B8A88E445
:100B400095E0DF91CF911F910F91FF90EF90DF9093
:100B5000CF90BF90AF909F908F907F906F905F905D
:100B60004F903F902F9008952091080530910905EE
:100B70002817390771F49091060580910705981799
:100B800041F0E0910605F0E0E858FC4F808190E0EC
:100B900008958FEF9FEF08950895EF92FF920F93BE
:100BA0001F93CF93DF93DC015C96ED90FC905D97F3
:100BB000E114F10479F481E090E013969C938E9314
:100BC000129790E080E0DF91CF911F910F91FF90FD
:100BD000EF9008955196ED91FC91529750968C911B
:100BE0005097982F90950FB75E962C915E97122F85
:100BF000127021FD6095F8942081112319F1282BA2
:100C00002083E7012197F1F728E0462F50E030815B
:100C100060FF1AC0382B3083E7012197F1F7BA0142
:100C200075956795215089F7112381F0808189237B
:100C300080830FBF5C968D919C910197F1F781E0C5
:100C400090E0C1CF2923DCCF3923E5CF9081892BD8
:100C5000EFCF20910805309109052817390771F465
:100C6000809107052091060590E0805C9F4F821BD4
:100C7000910960E470E00E946D33089590E080E097
:100C80000895209108053091090528173907B9F40E
:100C90009091060580910705981789F0E091060567
:100CA000F0E0E858FC4F80812091060530E02F5F8E
:100CB0003F4F2F7333272093060590E008958FEF61
:100CC0009FEF089521E001C0220F6A95EAF7DC0149
:100CD0001C962C931C971A965C934E931997ED9142
:100CE000FC910484F585E02D60E00994DC01ED9130
:100CF000FC910684F785E02D41E0099581E090E0C4
:100D00000895DC01ED91FC910684F785E02D40E02B
:100D100009940F931F93CF93DF93CDB7DEB7289736
:100D20000FB6F894DEBF0FBECDBF00910601109143
:100D30000701209108013091090109831A832B834F
:100D40003C8300910A0110910B0120910C0130911C
:100D50000D010D831E832F833887FC0127814217E5
:100D600010F04FEF420F50E0FC0130854C0F5D1F3B
:100D7000FA01303189F4243079F42581620F6068FA
:100D800028960FB6F894DEBF0FBECDBFDF91CF918E
:100D90001F910F910C9481062181F0CF61E00E9498
:100DA00081068BE39FE10197F1F708950895089577
:100DB000CF93DF93EC018D85882329F081508D87B7
:100DC000DF91CF9108959C818E819817C8F788890B
:100DD0006827E881F9810084F185E02D42E0CE01A9
:100DE00009958C818F5F8C83EBCFDC01ED91FC91B9
:100DF0000084F185E02D40E00994FC0127812695CF
:100E000026952695621738F465832385620F6770EF
:100E1000606B0C94F50608950F931F93CF93FC011C
:100E20002681621798F4C62F8C0164836085C60FF3
:100E30006C2F6F700E94F5066C2F62956F70606169
:100E4000C801CF911F910F910C94F506CF911F917E
:100E50000F910895209122053091230560E021151E
:100E6000324009F462E0680F86E295E00C940C07CA
:100E7000CF92DF92EF92FF920F931F93CF93DF9366
:100E8000EC01F62EC42ED22E1D868F818695869576
:100E90008695081710F00FEF080F1D2D6F2DCE014E
:100EA000011788F00E940C07612FCE010E94FD06F9
:100EB000EF2CCE1430F06889CE010E94D806E3945E
:100EC000F8CF1F5FEBCF0E940C076D2DCE01DF9195
:100ED000CF911F910F91FF90EF90DF90CF900C94E6
:100EE000FD060F93CF93DF93C2E2D5E01F861E86E7
:100EF00060E486E295E00E94F5060B85069506956E
:100F0000069501504A85415020E060E086E295E078
:100F10000E943807DF91CF910F910895EF92FF92D1
:100F20001F93CF93DF9310923A0580933905109267
:100F3000B90084E48093BC008CE08093B8001092E8
:100F40002A0510922B05E0EDF6E0E590F490E2ED35
:100F5000F6E01491E3EDF6E0E491E0932C05E4ED86
:100F6000F6E0E491E0932D05E5EDF6E0E491E09301
:100F70002E05D0E0C0E0C11750F4F701EC0FFD1FC3
:100F8000649186E295E00E94F5062196F4CFDF9108
:100F9000CF911F91FF90EF900C9471072F923F9289
:100FA0004F925F926F927F928F929F92AF92BF9279
:100FB000CF92DF92EF92FF920F931F93CF93DF9325
:100FC00000D000D000D0CDB7DEB7DC011E962D9149
:100FD0003C912115310509F470C19E838D83F9017F
:100FE0003296649031964491E42EF12CB7E0EB0EEA
:100FF000F11C53E0F594E7945A95E1F7E9823196B4
:1010000054913196E4916D30F1F460E00E940C0748
:1010100081E090E026960FB6F894DEBF0FBECDBFFC
:10102000DF91CF911F910F91FF90EF90DF90CF90C4
:10103000BF90AF909F908F907F906F905F904F90F8
:101040003F902F9008956A3009F061C060E08D8173
:101050009E810E940C07ED81FE8101890E9DE02C8E
:10106000112465816E0D8485882349F0278126959A
:10107000269526958E2D821B860F18162CF08D81B5
:101080009E810E94FD06C4CFAD81BE811B969C91BE
:101090001B97890F87701B968C931B972E1915969B
:1010A0002C9315971E96ED91FC91309771F1339624
:1010B000E491F0E0379633E0F595E7953A95E1F75E
:1010C0000E9F002D1124EFEFE20F0E0FED81FE8138
:1010D000468141506481CF010E943807AD81BE81B5
:1010E0001C968C911C97813009F092CF1B966C91C5
:1010F0001B97660F660F660F6F731A966C931A979D
:101100006064CD010E94F50683CF00E0DCCF651757
:1011100008F4D3C08E2F90E0FC01E50FF11D6E178F
:101120001F060CF0CAC089010A5F1F4F651BED81C5
:10113000FE8171855189759F502D11245C83F901C1
:1011400054912F5F3F4FF9012491352F2230310503
:1011500008F075C06E9CC0016F9C900D1124689FB3
:10116000F001699FF00D11240E0F1F1F512CAD814E
:10117000BE811496BC91BA83ED81FE812580F585F0
:10118000FB83862C912CAA24A394B12C312C898129
:10119000381608F090C0412CAD81BE8151968C91DB
:1011A0005197481608F080C0EB811D96EC933110E2
:1011B00002C0442079F0AD81BE811596DC90159770
:1011C000D3946A81CD010E940C076D2D8D819E8183
:1011D0000E94FD06D12CC12CC61408F058C0F8019D
:1011E000EC0DFD1D7490552061F0EA14FB0449F4E8
:1011F000E72DF0E0052C02C0F595E7950A94E2F79B
:101200007E2EED81FE818189823081F4442009F4B3
:101210003AC072948FE07822E72DF0E0E054F94F65
:101220007490672D8D819E810E94D806672D8D81D7
:101230009E810E94D8068FEFC81AD80ACDCF47707A
:1012400028E0522E541A411101C0512CF801612C92
:1012500030E020E0661631F04491240F311D639494
:101260003196F8CF600E712E711CF3016490E29EEE
:10127000F001E39EF00DF29EF00D11248E0F9F1FE2
:10128000080F191F74CFF72DFF707F2EC5CFD12CFB
:10129000AC81DA1639F060E08D819E810E94D8061B
:1012A000D394F6CF439478CF3394080D191DBFEF34
:1012B000AB1ABB0A6CCF622DE2CE90E080E0AACEE2
:1012C000833081F028F4813099F08230A9F00895BC
:1012D0008730A9F08830C9F08430B1F48091800063
:1012E0008F7D03C0809180008F7780938000089568
:1012F00084B58F7784BD089584B58F7DFBCF8091B1
:10130000B0008F778093B00008958091B0008F7DFA
:10131000F9CFCF93DF93282F30E0F901E455F94F4F
:101320008491F901E250F94FD491F901E651F94F56
:10133000C491CC23A1F081110E946009EC2FF0E050
:10134000EE0FFF1FE052F94FA591B491EC91ED2300
:1013500081E090E009F480E0DF91CF91089580E092
:1013600090E0FACF1F93CF93DF93282F30E0F9015D
:10137000E455F94F8491F901E250F94FD491F90104
:10138000E651F94FC491CC23A9F0162F81110E9488
:101390006009EC2FF0E0EE0FFF1FEA52F94FA59124
:1013A000B4918FB7F894EC91111108C0D095DE2359
:1013B000DC938FBFDF91CF911F910895DE2BF8CF83
:1013C000CF93DF9390E0FC01E250F94F24918651D6
:1013D000994FFC0184918823D1F090E0880F991FE8
:1013E000FC01EE55F94FA591B491FC01EA52F94F79
:1013F000C591D49161110EC09FB7F8948C91E22FE2
:10140000E0958E238C932881E223E8839FBFDF91B0
:10141000CF9108958FB7F894EC91E22BEC938FBFA6
:10142000F6CF3FB7F8948091740390917503A09123
:101430007603B091770326B5A89B05C02F3F19F01E
:101440000196A11DB11D3FBFBA2FA92F982F882744
:10145000BC01CD01620F711D811D911D42E0660F1F
:10146000771F881F991F4A95D1F708958F929F92F1
:10147000AF92BF92CF92DF92EF92FF924B015C014D
:101480000E94110A6B017C010E94110A6C197D09EE
:101490008E099F09683E734081059105A8F321E0FC
:1014A000821A9108A108B10888EEC80E83E0D81E00
:1014B000E11CF11C81149104A104B10429F7FF90EF
:1014C000EF90DF90CF90BF90AF909F908F90089556
:1014D0000F931F93CF93DF93EC01423018F08C8170
:1014E00088608C834F836887222329F0413019F468
:1014F0008C8184608C8364E670E080E090E00E94E0
:10150000360A6C8164FD57C0E881F9810684F7854D
:10151000E02D42E063E0CE0109958BE496E401976B
:10152000F1F7E881F9810684F785E02D42E063E078
:10153000CE01099503E512E0C8010197F1F7E881B2
:10154000F9810684F785E02D42E063E0CE0109953C
:10155000C8010197F1F7E881F9810684F785E02D4C
:1015600042E062E0CE010995C8010197F1F76C8174
:101570006062CE010E9481068BEE90E00197F1F748
:1015800084E08D836CE0CE010E948106CE010E9432
:10159000CE0682E08E8366E0CE010E948106E8815D
:1015A000F9810484F585E02D6FEFCE01DF91CF91B5
:1015B0001F910F9109946062CE010E9481068BE415
:1015C00096E40197F1F76C816062CE010E9481067A
:1015D00003E512E0C8010197F1F76C816062CE016A
:1015E0000E948106C1CF2FB7F8946091700370916B
:1015F000710380917203909173032FBF0895CF926E
:10160000DF92EF92FF921F93CF93DF93CDB7DEB7B8
:1016100028970FB6F894DEBF0FBECDBF10924F05CE
:1016200010926D0588E0EEE0F1E0DE011196019088
:101630000D928A95E1F780913B0590913C05DC0184
:10164000ED91FC910084F185E02D0995892B61F0E5
:1016500080913B0590913C05DC01ED91FC91028469
:10166000F385E02D0995E7CFCE0101960E9486040F
:101670000E94F30A6B017C0110E00E94F30A6C19CE
:101680007D098E099F09603A7F408105910508F028
:101690005DC080913B0590913C05DC01ED91FC9192
:1016A0000084F185E02D0995892B39F380913B0564
:1016B00090913C05DC01ED91FC910284F385E02DD5
:1016C0000995212F30E0143020F0163068F41F5FA8
:1016D000D4CFE1E0F0E0EC0FFD1F2E0F3F1FD9014A
:1016E0009C919817A1F3C8CF143228F4255C3A4F87
:1016F000F9018687ECCF1E3230F4255C3A4FD901D0
:101700001E968C93E4CFEFE4F5E090E080E0219129
:10171000283291F4855C9A4FFC01148AEDE6F5E0DD
:1017200090E080E02191283261F4855C9A4FDC01E1
:10173000D2961C9280E00BC001968E31910539F74C
:10174000EDCF01968A30910569F7F4CF81E02896B4
:101750000FB6F894DEBF0FBECDBFDF91CF911F91C2
:10176000FF90EF90DF90CF900895CF93DF93EC013F
:101770008A859B85AC85BD858E839F83A887B98725
:101780000E94F30A6A837B838C839D8381E0898333
:101790008883DF91CF910895CF93DF93EC018E8101
:1017A0009F81A885B9858A839B83AC83BD830E9472
:1017B000F30A6A877B878C879D8781E0898388838A
:1017C000DF91CF910895DC01ED91FC910190F081C2
:1017D000E02D0994EF92FF920F931F93CF93DF9325
:1017E0008C017B01D0E0C0E0F701EC0FFD1F64919C
:1017F000662361F0D801ED91FC910190F081E02D1C
:10180000C8010995892B11F02196EECFCE01DF9109
:10181000CF911F910F91FF90EF900895AF92BF92DB
:10182000CF92DF92EF92FF920F931F93CF93DF93AC
:101830006C017B018B01040F151FEB015E01AE18DB
:10184000BF08C017D10759F06991D601ED91FC91FD
:101850000190F081E02DC6010995892B79F7C5012A
:10186000DF91CF911F910F91FF90EF90DF90CF907C
:10187000BF90AF900895FC01538D448D252F30E02B
:10188000842F90E0821B930B541710F0CF9608958D
:1018900001970895FC01918D828D981761F0A28DBA
:1018A000AE0FBF2FB11D5D968C91928D9F5F9F7380
:1018B000928F90E008958FEF9FEF0895FC01918D36
:1018C000828D981731F0828DE80FF11D858D90E0A3
:1018D00008958FEF9FEF0895FC01918D228D892F40
:1018E00090E0805C9F4F821B91098F739927089528
:1018F00089E694E00E946C0C21E0892B09F420E039
:10190000822F089580E090E0892B29F00E94780CC6
:1019100081110C9400000895FC01A48DA80FB92F2B
:10192000B11DA35ABF4F2C91848D90E001968F7307
:101930009927848FA689B7892C93A089B1898C9126
:10194000837080648C93938D848D981306C0028875
:10195000F389E02D80818F7D80830895EF92FF923F
:101960000F931F93CF93DF93EC0181E0888F9B8DC2
:101970008C8D98131AC0E889F989808185FF15C07C
:101980009FB7F894EE89FF896083E889F98980819F
:101990008370806480839FBF81E090E0DF91CF916E
:1019A0001F910F91FF90EF900895F62E0B8D10E090
:1019B0000F5F1F4F0F731127E02E8C8D8E110CC0FF
:1019C0000FB607FCFACFE889F989808185FFF5CF4A
:1019D000CE010E948C0CF1CFEB8DEC0FFD2FF11D91
:1019E000E35AFF4FF0829FB7F8940B8FEA89FB8987
:1019F00080818062CFCF682F89E694E00C94AE0C92
:101A0000CF93DF93EC01888D8823B9F0AA89BB8935
:101A1000E889F9898C9185FD03C0808186FD0DC020
:101A20000FB607FCF7CF8C9185FFF2CF808185FF41
:101A3000EDCFCE010E948C0CE9CFDF91CF910895BC
:101A4000DC0180E0615090F09D919827E92FEF70C4
:101A5000F0E0EF57FF4F2491E92FE295EF70F0E0AF
:101A6000EF56FF4FE491822F8E27ECCF089584E943
:101A70008093BC0085E69091BC0094FF03C0815028
:101A8000D1F7089581E00895FC016093BC002FEF29
:101A90003FEF8091BC0087FF06C09091B900987F0E
:101AA000908381E008952150310999F780E00895ED
:101AB000CF93DF93EC016093BB0064E80E94440D78
:101AC000882329F081E09881983209F080E0DF9145
:101AD000CF910895DF92EF92FF920F931F93CF93D0
:101AE000DF93EC01D62EF42E8C89882329F0411146
:101AF00003C00E94370D1C8A8E010E5E1F4F8C8919
:101B0000811119C0EB8864EAC8010E94440D882342
:101B100061F08A89883011F0803139F4EE0CE0925E
:101B2000BB0064E8C8010E94440D60E0F11060E46D
:101B3000C8010E94580D6D2DC8010E94580D82E009
:101B4000F8120BC08C898F5F8C8BDF91CF911F9126
:101B50000F91FF90EF90DF9008950E94370D1C8A3F
:101B6000F4CF08952091ED02260F3327331F213241
:101B70003105ECF420913704FC0190E080E0243042
:101B800069F082E00895A091ED022191AC014353E8
:101B90005D4FA40FB52FB11D2C930196861798F3B6
:101BA0008091ED02680F6093ED0280E0089581E07E
:101BB00008951092370481E0809336041092110446
:101BC00061E082E10E94B20961E083E10E94B20912
:101BD000E9EBF0E080818E7F808380818D7F808340
:101BE00088E48093B80085E48093BC000895109247
:101BF000F0031092EF0310923E04109260040E94D2
:101C0000D90D84E894E09093EE038093ED0385E88A
:101C100094E09093EC038093EB030895CF93DF93CC
:101C200091E09093CC028823B9F0C091B800D09194
:101C3000BA008091BC008A7B8093BC0060E082E1A6
:101C40000E94B20960E083E10E94B2090E94D90DAE
:101C5000D093BA00C093B800DF91CF9108958F92CE
:101C60009F92AF92BF92CF92DF92EF92FF920F932B
:101C70001F93CF93DF93D0916004D13208F0D7C087
:101C8000182FC0915F040E94110A6B017C018091A2
:101C9000370481116BC082E08093370410933604BF
:101CA0008FEF8093350410923404D0933304AFE364
:101CB000B4E0E3E1F4E080E0D81391C010921204A4
:101CC00080911204CC0FC82BC09312048091110490
:101CD000813009F088C0109211040E94110A6B0132
:101CE0007C01809112048093BB0080913904909113
:101CF0003A04A0913B04B0913C04892B8A2B8B2B96
:101D0000A1F00E94110A0091390410913A04209127
:101D10003B0430913C046C197D098E099F0906171C
:101D200017072807390708F442C08091BC0083FDDB
:101D3000D8CF85EC8093BC000E94110A6B017C0116
:101D400080913704823009F450C0809135048F3F70
:101D500009F46FC080913504803209F46CC0809121
:101D60003504803309F469C084E026C080913904C9
:101D700090913A04A0913B04B0913C04892B8A2BAA
:101D80008B2B09F484CF0E94110A80903904909023
:101D90003A04A0903B04B0903C046C197D098E0974
:101DA0009F0986169706A806B90608F070CF80919D
:101DB00038040E940E0E85E010923E0410926004DA
:101DC00010923D04DF91CF911F910F91FF90EF9002
:101DD000DF90CF90BF90AF909F908F9008959D918E
:101DE00091938F5F69CF85EEA5CF80913904909153
:101DF0003A04A0913B04B0913C04892B8A2B8B2B95
:101E000009F49ECF0E94110A0091390410913A04FE
:101E100020913B0430913C046C197D098E099F0987
:101E2000061717072807390708F08ACFC0CF81E0C7
:101E3000C3CF80E0C1CF82E0BFCF83E0BDCFE091D0
:101E4000F0038091EF03E81730F4F0E0EF50FC4F1F
:101E5000808190E008958FEF9FEF08959091F003B7
:101E60008091EF032FEF3FEF981748F4E92FF0E050
:101E7000EF50FC4F208130E09F5F9093F003C90149
:101E800008958091EF039091F003891B990B0895B9
:101E9000CF92DF92EF92FF920F931F93CF93DF9336
:101EA0007C01CB018A0120913D04222389F0EB01C2
:101EB0006B01C40ED51ECC15DD0569F06991D70103
:101EC000ED91FC910190F081E02DC7010995F3CFD0
:101ED000642F0E94B20DC801DF91CF911F910F9125
:101EE000FF90EF90DF90CF900895CF93DF931F92F4
:101EF000CDB7DEB7698320913D042223F9F020910C
:101F00006004203258F021E030E0FC01338322836A
:101F100090E080E00F90DF91CF91089580913E0492
:101F2000E82FF0E0E15CFB4F998190838F5F809315
:101F30003E048093600481E090E0ECCF61E0CE014C
:101F400001960E94B20DF7CFFC0123812223E9F014
:101F50008181682B6083828191E090933D0480931E
:101F60005F0410923E04109260048CE095E00E94A1
:101F7000750F81E00E942F0E282F30E081E090E065
:101F8000232B11F090E080E0089530E020E0F6CFC0
:101F9000EF92FF920F931F93CF938C01FC0184E08B
:101FA000C0E0262F30E060FF02C09589C92BB9013F
:101FB00075956795815031968111F3CF413011F4B9
:101FC000F8014489F8016585C62BC42B7801FEE031
:101FD000EF0EF11CF80162896C2BC7010E94A40F5F
:101FE000F801628960956C23C701CF911F910F9111
:101FF000FF90EF900C94A40F0F931F93CF93DF9358
:10200000062F0F70423041F440E0602FDF91CF91F6
:102010001F910F910C94C80F142FEC0170E084E015
:10202000759567958A95E1F7CE010E94C80F412FFB
:10203000602FCE01EBCFFC0184858823A1F02185A0
:1020400032852115310521F4611107C0158606C0BE
:1020500021303105D9F76111F9CF85876585CF0129
:102060000E960C94A40F0895EF92FF920F931F9376
:10207000CF93DF93EC01062FF42EE22E8B85888B15
:102080000E94F70D888911E010933D0480935F044E
:1020900010923E041092600481E00E942F0E811184
:1020A0001CC0198B8CE095E00E942E0F8E878989C9
:1020B000882339F01F861C8260E0CE010E960E94B4
:1020C000A40F2E2D4F2D602FCE01DF91CF911F91A8
:1020D0000F91FF90EF900C94680A198AE8CF90E076
:1020E00080E0089580916A03882311F020E015C0F4
:1020F00080915C038430D0F380915D038823B1F339
:102100008EE00E948909019789F70E94F30A21E075
:10211000613C744D8140910548F3822F089586E01B
:102120000E94890921E0892B09F420E0822F08957B
:1021300080916A0381110AC00E947210811108C047
:102140000E948F10811106C085E5089586E40895E8
:102150008CE4089588E40895E2E4F3E0128613869F
:102160001486158616861786108A118A128A138A93
:10217000148A158A168A178A108E118E128E138E63
:10218000148E158E168E178E089590917A00986091
:1021900090937A0093B7917F926093BF8E3008F04E
:1021A0008E508770806480937C0080917A00806478
:1021B00080937A0080917A0086FDFCCF9091780020
:1021C0008091790089279827892723B7216023BF29
:1021D000789423B7216023BF889523B72E7F23BF30
:1021E000F89420917A0026FDF3CF23B72E7F23BFEA
:1021F00020917A00277F20937A0078940895EF92B7
:10220000FF920F931F93CF93DF93C0914103CF3F72
:10221000B1F0D0E0CE010E94C5108C01E0904A03DD
:10222000F0904B03CE010E151F0559F00E94C5100A
:102230009C012E193F0981E02230310550F080E0E9
:1022400008C00E94C510081B190B81E0023011055F
:10225000B0F7DF91CF911F910F91FF90EF9008950C
:10226000CF93C82F86E00E948909C817190629F064
:102270006C2F86E0CF910C94B209CF9108952F92E4
:102280003F924F925F927F928F929F92AF92BF92B6
:10229000CF92DF92EF92FF920F931F93CF93DF9332
:1022A0001F92CDB7DEB7811520E1920708F04CC12F
:1022B0007C0101E0CE0101966C0199249A9435EEDF
:1022C000832E45EC742E8091180500933D04809375
:1022D0005F0410923E041092600481E00E942F0E71
:1022E0008111CFC0109118050E94110A1B012C0109
:1022F00080913704811162C0009337040093360443
:102300009092350410923404109233040093120416
:1023100080911204110F182B109312048091110454
:10232000813009F089C0109211040E94110A1B012A
:102330002C01809112048093BB008091390490910C
:102340003A04A0913B04B0913C04892B8A2B8B2B3F
:10235000A1F00E94110A2091390430913A04409171
:102360003B0450913C0462197309840995092617AE
:1023700037074807590708F442C08091BC0083FD25
:10238000D8CF7092BC000E94110A1B012C018091D1
:102390003704813009F453C08091340411E0811175
:1023A00002C010913404A3E1B4E0E1EFF3E080E077
:1023B000811751F19D9191938F5FFACF80913904EC
:1023C00090913A04A0913B04B0913C04892B8A2B54
:1023D0008B2B09F48DCF0E94110A20913904309182
:1023E0003A0440913B0450913C04621973098409FA
:1023F0009509261737074807590708F079CF8091C4
:1024000038040E940E0E10E01092F0031093EF03B8
:1024100056018A2D8C198117A0F580912005909185
:102420002105DC01ED91FC910284F385E02D0995F5
:10243000F50181935F01EDCF8092BC00A4CF809124
:10244000390490913A04A0913B04B0913C04892B4B
:102450008A2B8B2B09F49BCF0E94110A20913904FF
:1024600030913A0440913B0450913C046219730945
:1024700084099509261737074807590708F087CFB9
:10248000BECF898187FF1FCF0E94F30A60931C058E
:1024900070931D0580931E0590931F058091200564
:1024A000909121052091180531E030933D0420934F
:1024B0005F0410923E041092600460911B05660F49
:1024C0006064DC01ED91FC910190F081E02D0995B3
:1024D0008091200590912105DC01ED91FC91019006
:1024E000F081E02DB70124E0769567952A95E1F714
:1024F00009958091200590912105DC01ED91FC91D9
:102500000190F081E02D6E2D6295607F099581E04C
:102510000E942F0E90E0009721F4F0921A05E092AD
:1025200019050F90DF91CF911F910F91FF90EF90C0
:10253000DF90CF90BF90AF909F908F907F905F90F3
:102540004F903F902F90089589E19CEFEACFCF9272
:10255000DF92EF92FF92CF93DF9360914A037091E5
:102560004B0390E080E00E94CB3120E030E040EA75
:102570005BE30E942C3220E030E040EA5AE30E9404
:1025800051340E94CA346B01CB010E943F110E945A
:10259000FF10811110C0E601249785E0C80ED11C00
:1025A0000E94FF10811107C0CE010E943F112196A9
:1025B000CC15DD05A9F7DF91CF91FF90EF90DF906B
:1025C000CF9008958FE090E00E94C510BC0190E08C
:1025D00080E00E94CB3120E030E040EA5BE30E94E3
:1025E0002C3220E030E040EA5AE30E9451340E944D
:1025F000CA34CB010C943F11FB0101900020E9F794
:102600003197AF01461B570BDC01ED91FC91028025
:10261000F381E02D0994CF93DF93BC0189E694E028
:102620000E94EA0BEC0160EB71E089E694E00E9405
:10263000FC128C0F9D1FDF91CF9108958F929F9276
:10264000AF92BF92EF92FF920F931F93CF93DF93BE
:10265000CDB7DEB7A1970FB6F894DEBF0FBECDBFE2
:102660007C01FA01CB0119A2223008F42AE08E0184
:102670000F5D1F4F822E912CB12CA12CBF01A50103
:1026800094010E948133F901CA016A300CF5605D42
:10269000D8016E938D01232B242B252B79F790E005
:1026A00080E0109721F0BD01C7010E94FC12A196A5
:1026B0000FB6F894DEBF0FBECDBFDF91CF911F9153
:1026C0000F91FF90EF90BF90AF909F908F900895E3
:1026D000695CDECFCF92DF92EF92FF920F931F9350
:1026E000CF93DF936B01770FEE08FF08F7FE1BC057
:1026F000EC016DE20E94E30B8C0144275527BA01DF
:102700004C195D096E097F092AE0CE010E941E1353
:10271000800F911FDF91CF911F910F91FF90EF904C
:10272000DF90CF9008952AE0B701A601DF91CF9105
:102730001F910F91FF90EF90DF90CF900C941E139C
:102740004F925F926F927F928F929F92AF92BF92C1
:10275000CF92DF92EF92FF920F931F93CF93DF936D
:10276000EC016A017B01922EAB019601CB01B6010F
:102770000E94FE3463EB71E0811126C0260137010F
:10278000E89477F82FEF3FEF4FE75FE7C301B2011F
:102790000E94FE3481110CC02FEF3FEF4FE75FE73F
:1027A000C301B2010E94C63167EB71E0181664F0F4
:1027B0002FEF3FEF4FE75FE4C701B6010E94F93406
:1027C0001816ACF46BEB71E0CE01DF91CF911F9145
:1027D0000F91FF90EF90DF90CF90BF90AF909F90C0
:1027E0008F907F906F905F904F900C94FC122FEF22
:1027F0003FEF4FE75FECC701B6010E94C63187FD8E
:10280000E1CF20E030E0A901C701B6010E94C63146
:10281000B12CA12C87FF09C06DE2CE010E94E30B11
:102820005C01F7FAF094F7F8F094192D60E070E08D
:1028300080E09FE300E020E030E040E251E40E94CD
:10284000513421E0200F01E02915A8F3A7019601DA
:102850000E94E5332B013C010E94CA346B017C01CC
:102860000E94CB319B01AC01C301B2010E94E43351
:102870002B013C012AE0B701A601CE010E941E13E4
:102880007C016EE2CE010E94E30BE80EF91EEA0C19
:10289000FB1C115020F120E030E040E251E4C30184
:1028A000B2010E942C322B013C010E94CA344B0120
:1028B000B12CA12C2AE0B501A401CE010E941E1367
:1028C000E80EF91EC501B4010E94CB319B01AC0199
:1028D000C301B2010E94E4332B013C01DACFC701EE
:1028E000DF91CF911F910F91FF90EF90DF90CF90EC
:1028F000BF90AF909F908F907F906F905F904F9020
:1029000008956115710511F00C94FC1290E080E0BF
:1029100008950F931F93CF93DF93CDB7DEB728971A
:102920000FB6F894DEBF0FBECDBFE9EBF3E080E059
:102930009191992331F023E0EC3EF20711F08927C1
:10294000F7CF1F928F938FEB91E09F938F931F92FE
:1029500087E08F938E010F5F1F4F1F930F930E948D
:10296000123780913B0590913C05DC01ED91FC9183
:102970000190F081E02D64E2099569EB73E08091AC
:102980003B0590913C050E948114B80180913B0564
:1029900090913C050E94811480913B0590913C05EB
:1029A000DC01ED91FC910190F081E02D6DE0099545
:1029B00080913B0590913C05DC01ED91FC910190EB
:1029C000F081E02D6AE0099580913B0590913C05EE
:1029D000DC01ED91FC910680F781E02D09950FB6A1
:1029E000F894DEBF0FBECDBF81E028960FB6F894F5
:1029F000DEBF0FBECDBFDF91CF911F910F91089524
:102A0000DC010D900020E9F79D01245031092817C1
:102A10003907D9F49F938F9385EC91E09F938F931F
:102A20001F9281E38F9389EB93E09F938F930E9492
:102A300012370E9489148DB79EB708960FB6F89486
:102A40009EBF0FBE8DBF81E0089580E008958F92F4
:102A50009F92AF92BF92CF92DF92EF92FF920F932D
:102A60001F93CF93DF93CDB7DEB72C970FB6F894B3
:102A7000DEBF0FBECDBF67E070E090E080E00E9457
:102A800028368C01D12CC12C009749F0DC011C9216
:102A900068ED71E00E94FC3696E0C92ED12C8CE0E6
:102AA000E6E1F1E0DE01119601900D928A95E1F7E1
:102AB0001092770580913B0590913C05DC01ED91EA
:102AC000FC910084F185E02D0995892B61F08091BE
:102AD0003B0590913C05DC01ED91FC910284F3856E
:102AE000E02D0995E7CFCE0101960E94860483E090
:102AF000F82EE12C0E94F30A4B015C010E94F30ABC
:102B0000681979098A099B09603A7F408105910516
:102B100028F580913B0590913C05DC01ED91FC91FD
:102B20000084F185E02DB7E5EB16C1F00995892BFE
:102B300029F380913B0590913C05DC01ED91FC91DE
:102B40000284F385E02D0995E82EC114D10419F013
:102B50000115110599F61092B803D0CF80913B056D
:102B600090913C05DC01ED91FC910084F185E02D14
:102B70000995892B59F40E94F30A681979098A0981
:102B80009B09603A7F408105910540F3E7E5EE122D
:102B900051C0F12C80913B0590913C05DC01ED91F9
:102BA000FC910084F185E02D0995892B59F40E9450
:102BB000F30A681979098A099B09603A7F408105FF
:102BC000910540F380913B0590913C05DC01ED912E
:102BD000FC910284F385E02D0995803231F1EF2DCF
:102BE000F0E0E55CFA4F84AFF394BDE1FB12D2CF85
:102BF000F12C109294050115110519F0C8010E94DD
:102C00009F358F2D2C960FB6F894DEBF0FBECDBF2B
:102C1000DF91CF911F910F91FF90EF90DF90CF90B8
:102C2000BF90AF909F908F900895F110E1CFFF2457
:102C3000FA94DACFFA94F1105DCFFF24F394D9CF50
:102C40002F923F924F925F926F927F928F929F92BC
:102C5000AF92BF92CF92DF92EF92FF920F931F93AA
:102C6000CF93DF93D82FC92F8B010E948A3124E69E
:102C700030E040E050E00E94813349019B01AC010B
:102C800060E876E988E990E00E9451336B017C01AD
:102C9000F80191828082ED2FFC2F2191822F022E4C
:102CA000000C990BC0970A97C0F32E3239F51F011B
:102CB00080E8882E86E9982E88E9A82EB12C9AE023
:102CC000492E512C612C712CF101C1911F010C2E48
:102CD000000CDD0BE097CA30D10580F4C501B401CA
:102CE000A30192010E94813349015A01DE010E9431
:102CF000C833C60ED71EE81EF91EE6CFA5E0B0E029
:102D0000A70196010E9400336F5F7F4F8F4F9F4F47
:102D100023E030E040E050E00E948133F80122835C
:102D20003383448355831682DF91CF911F910F9196
:102D3000FF90EF90DF90CF90BF90AF909F908F90DB
:102D40007F906F905F904F903F902F9008951F93CA
:102D5000CF93DF93EC0118811D3209F42196CE0147
:102D60000E948A319B01AC01A4E6B0E00E940033CE
:102D7000AB01BC01FE012991822F022E000C990BA0
:102D8000C0970A97B8F32E3231F58181082E000CD6
:102D9000990BC0978A309105F0F4AAE0A89F9001A2
:102DA000A99F300D1124C901330FAA0BBB0B480F8B
:102DB000591F6A1F7B1F8281082E000C990BC09738
:102DC0008A30910540F4092E000CAA0BBB0B480F6A
:102DD000591F6A1F7B1F1D3239F4709560955095FD
:102DE00041955F4F6F4F7F4FCB01BA01DF91CF917C
:102DF0001F9108950E94E53685ED8093BC00809177
:102E0000390490913A04A0913B04B0913C04079698
:102E1000A11DB11D23E0B695A795979587952A9595
:102E2000D1F72091BC0024FD03C01092370408950F
:102E30004091390450913A0460913B0470913C04F4
:102E4000452B462B472B69F30097A105B10541F0AF
:102E500025E32A95F1F700000197A109B109E1CF17
:102E6000809138040C940E0ECF92DF92EF92FF9275
:102E70000F931F93CF93DF93EB017B0128E2E20EC8
:102E8000F11C8B016C01C61AD70AC601800F911F75
:102E90000E94EA32F80181938F01EE15FF05A9F730
:102EA000CE01DF91CF911F910F91FF90EF90DF90B6
:102EB000CF900895CF92DF92EF92FF920F931F93DE
:102EC000CF93DF93CDB7DEB7A8970FB6F894DEBFE8
:102ED0000FBECDBF10E000E0E12CF12CD12CC12CB5
:102EE000083E23E0120731F1BE016F5F7F4FC8013A
:102EF0000E94341789819A81AB81BC8181309C45C5
:102F0000AC4BB10589F48D819E81AF81B885A60156
:102F100070E060E0481759076A077B0714F46C01FA
:102F20007801085D1F4FDCCF0115110511F0085223
:102F300011097801C701A8960FB6F894DEBF0FBE3D
:102F4000CDBFDF91CF911F910F91FF90EF90DF9058
:102F5000CF9008959F92AF92BF92CF92DF92EF925F
:102F6000FF920F931F93CF93DF93CDB7DEB7A89750
:102F70000FB6F894DEBF0FBECDBF80914203909193
:102F80004303A0914403B0914503809310039093B1
:102F90001103A0931203B093130380914603909101
:102FA0004703A0914803B09149030196A11DB11DAB
:102FB0008093460390934703A0934803B09349033B
:102FC0008093140390931503A0931603B0931703F3
:102FD00080914A0390914B039093190380931803B7
:102FE00080914C0390914D03A0914E03B0914F03FB
:102FF00080931A0390931B03A0931C03B0931D03AB
:103000008091500390915103A0915203B0915303CA
:1030100080931E0390931F03A0932003B09321037A
:1030200080915C0380932A038091620390916303F3
:10303000A0916403B09165038093300390933103B2
:10304000A0933203B09333030E945A178C01009768
:1030500009F04EC0BE016F5F7F4F90E080E00E949C
:10306000341789819A81AB81BC8181309C45AC4BFE
:10307000B105D9F1F12CE12C60E0C7010E94F232D8
:103080008FEFE81AF80AE114E4E0FE06A9F780E100
:10309000C82E83E0D82EF12CE12CF60191906F011F
:1030A0005701A00EB11EC5010E94EA32981621F008
:1030B000692DC5010E94F232FFEFEF1AFF0A28E2E4
:1030C000E216F10451F7A8960FB6F894DEBF0FBED2
:1030D000CDBFDF91CF911F910F91FF90EF90DF90C7
:1030E000CF90BF90AF909F90089508E210E0CFCFAF
:1030F000805B9F4F085D1F4F8130944040F210E08D
:1031000000E0C5CF1F920F920FB60F9211242F939C
:103110003F934F935F936F937F938F939F93AF935F
:10312000BF93EF93FF93E0910805F0910905309765
:1031300049F0A685B7858585968D91FF14C09C9131
:103140008923A1F4FF91EF91BF91AF919F918F914E
:103150007F916F915F914F913F912F910F900FBE93
:103160000F901F9018959C91892361F7A389B489CA
:103170009C918589809589238C938689978901976D
:10318000F1F7608D718DA685B785558538E020E013
:10319000CB010197F1F7822F90E095958795282F25
:1031A0004C91452309F02068315091F7868D81FDBF
:1031B00020958091070590E001968F7399273091B3
:1031C0000605381799F0A0910705B0E0A858BC4F44
:1031D0002C9380930705828D938D0197F1F7A38936
:1031E000B4898C919589892B8C93ACCF868D816025
:1031F000868FF1CF1F920F920FB60F9211242F934B
:103200003F938F939F93AF93BF938091700390915F
:103210007103A0917203B091730330916F0323E0A7
:10322000230F2D3758F50196A11DB11D20936F0373
:103230008093700390937103A0937203B093730310
:103240008091740390917503A0917603B0917703F8
:103250000196A11DB11D8093740390937503A093F3
:103260007603B0937703BF91AF919F918F913F9178
:103270002F910F900FBE0F901F90189526E8230FE7
:103280000296A11DB11DD2CF1F920F920FB60F92C1
:1032900011242F933F934F935F936F937F938F935B
:1032A0009F93AF93BF93EF93FF9389E694E00E94BF
:1032B0008C0CFF91EF91BF91AF919F918F917F9176
:1032C0006F915F914F913F912F910F900FBE0F9093
:1032D0001F9018951F920F920FB60F9211242F93E3
:1032E0008F939F93EF93FF93E0917904F0917A0489
:1032F0008081E0917F04F091800482FD1BC0908169
:10330000809182048F5F8F7320918304821741F034
:10331000E0918204F0E0E759FB4F958F809382049F
:10332000FF91EF919F918F912F910F900FBE0F9072
:103330001F9018958081F4CF1F920F920FB60F92B5
:1033400011242F933F934F935F936F937F938F93AA
:103350009F93AF93BF93EF93FF938091B900887FC2
:10336000803609F44AC0F0F5883209F4A7C018F590
:10337000803109F49BC0B8F4882309F4F9C088307F
:1033800009F494C0FF91EF91BF91AF919F918F91FC
:103390007F916F915F914F913F912F910F900FBE51
:1033A0000F901F901895883109F488C0803251F72A
:1033B0008093350414C0803409F49DC040F48033F8
:1033C000B9F38833F9F68093350485ECB0C08035C5
:1033D00009F485C0883509F496C0883499F60E94AE
:1033E000FC16D0CF883909F48CC038F5883729F01D
:1033F00050F4883611F0803729F683E08093370443
:1034000010920F0357C0883809F47BC0803919F037
:10341000803809F0B7CF80910F03803208F071C077
:10342000E0910F0381E08E0F80930F038091BB002A
:10343000F0E0E151FD4F80833DC0803B39F0E0F486
:10344000803A09F479C0883A09F09CCF84E08093EF
:1034500037041092EE021092ED02E091ED03F0912C
:10346000EE0309958091ED0281110FC081E08093F8
:10347000ED021092CD0209C0803C09F4A6CF883C31
:1034800009F4A3CF883B09F07DCFE091EE0281E003
:103490008E0F8093EE02F0E0E353FD4F8081809326
:1034A000BB009091EE028091ED0229C08091120440
:1034B0008093BB0085EC8093BC0064CF9091340472
:1034C00080913304981758F5E091340481E08E0F11
:1034D00080933404F0E0ED5EFB4F8081E9CFE09112
:1034E000340481E08E0F809334048091BB00F0E0BF
:1034F000ED5EFB4F808390913404809133049817E4
:10350000C8F285E8D8CFE091340481E08E0F809333
:1035100034048091BB00F0E0ED5EFB4F808380912E
:10352000360481115CCF81E08093110484EA80939A
:10353000BC001092370426CF85EC8093BC0010921B
:10354000370480910F03803230F4E0910F03F0E0F4
:10355000E151FD4F108260910F0370E0E091EB03A9
:10356000F091EC038FEE92E0099510920F030ACFD1
:103570001092350434CF1F920F920FB60F92112480
:103580000F900FBE0F901F901895CF92DF92EF9281
:10359000FF92CF93DF9310926C0410926B0498EE1D
:1035A000C92E93E0D92EE12CF12CC0926D04D0925B
:1035B0006E04E0926F04F092700480E791E09093C3
:1035C0006A048093690485EC90E09093760480937C
:1035D000750484EC90E0909378048093770480ECF9
:1035E00090E090937A048093790481EC90E090933A
:1035F0007C0480937B0482EC90E090937E04809323
:103600007D0486EC90E09093800480937F04109278
:103610008204109283041092840410928504109204
:103620000F0510920E05C0921005D0921105E09280
:103630001205F092130582E891E090930D058093B6
:103640000C0560E080E10E94E009EEE0F7E0E49123
:10365000E0939505EAEFF6E0E491F0E0EE0FFF1F4E
:10366000E052F94F85919491909397058093960538
:103670001092A0051092A2051092A10510929F052C
:1036800010929E0510929D0510929C0510929B052C
:1036900010929A0510929905109298058FE190E08A
:1036A0000E940335EC011B821A82CC82DD82EE82FD
:1036B000FF8282EA91E0998388831F8A1E8A198E8D
:1036C000188E1B8E1A8E1D8E1C8E6E8D6E7F6D7FDA
:1036D0006E8F6695617081E0682783E00E94B20971
:1036E00061E083E00E94E009E1E0F7E0E491E88B2B
:1036F000EDEEF6E0E491F0E0EE0FFF1FEA52F94F35
:10370000859194919A8B898B60E084E00E94E00916
:103710008E8D81FD04C061E084E00E94B20984E0E6
:103720008C87E2E0F7E0E491ED87EEEEF6E0E491DD
:10373000F0E0EE0FFF1FE052F94F859194919F87C3
:103740008E87D0933C05C0933B058DE991E09D8F1A
:103750008C8F8DEB90E09F8B8E8B8BE991E0998F16
:10376000888F8CE291E09B8F8A8F809168008460C3
:10377000809368009C852DE630E0983050F02BE671
:1037800030E09E3030F02CE630E0963110F030E042
:1037900020E03C8B2B8B292F30E0983008F073C150
:1037A00081E001C0880F9A95EAF78D8B8C8D9D8DF5
:1037B0000197F1F78A8D9B8D892B09F1E09108051E
:1037C000F0910905CE17DF07D1F0309739F0A389C2
:1037D000B4899C918589809589238C938E8D8E7F69
:1037E0008E8F1092070510920605D0930905C0939D
:1037F0000805EB89FC8980819D89892B8083EFE313
:10380000F5E088E495E011928E179F07E1F78BEBC6
:1038100090E00E940335FC01108211821382128213
:1038200014821582168217821086128611861386DC
:103830001486158616861786118A108A128A138AAC
:10384000148A158A168A108E178A118E128E138E7C
:10385000148E158E168E178E10A211A212A213A20C
:1038600014A215A216A217A210A611A612A613A69C
:1038700014A615A616A617A610AA11AA12AA13AA6C
:1038800014AA15AA16AA17AA10AE11AE12AE13AE3C
:1038900014AE15AE16AE17AEDC01DE9616961D926E
:1038A0001D921D921C92199712961D921D921D92A7
:1038B0001C9215971A961D921D921D921C921D978F
:1038C0001E961C9211961C92119716961D921D928F
:1038D0001D921C92199712961D921D921D921C9278
:1038E00015971A961D921D921D921C921D971E9659
:1038F0001C9211961C92119716961D921D921D9264
:103900001C92199712961D921D921D921C9215974A
:103910001A961D921D921D921C921D971E961C9226
:1039200011961C92119716961D921D921D921C9233
:10393000199712961D921D921D921C9215971A9618
:103940001D921D921D921C921D971E961C921196FF
:103950001C92119716961D921D921D921C921997FA
:1039600012961D921D921D921C9215971A961D92E9
:103970001D921D921C921D971E961C9211961C92D0
:10398000119716961D921D921D921C9219971296D0
:103990001D921D921D921C9215971A961D921D92B2
:1039A0001D921C921D971E961C9211961C92509669
:1039B00082E08C9311961C9211961C9211961C9287
:1039C000119611961C921E92129611961C921E929E
:1039D00012961D921D921D921C92139714961D9281
:1039E0001D921D921C92139714961D921D921D926A
:1039F0001C92139714961D921D921D921C92139760
:103A000093971C92F0930B05E0930A0581E090E0F8
:103A10000E94033590933E0580933D051092290541
:103A20001092280510923205109233051092350538
:103A3000109234051092360581E08093370584E9B1
:103A400091E0909327058093260580E680931805E2
:103A50008CE095E0909321058093200510921A0543
:103A60001092190510921B0510921C0510921D054D
:103A700010921E0510921F05DF91CF91FF90EF90DD
:103A8000DF90CF9008959E3040F42850310981E0B6
:103A900001C0880F2A95EAF788CE2E503109F7CF5A
:103AA000CF93DF93CDB7DEB7C054D1090FB6F894EA
:103AB000DEBF0FBECDBF789484B5826084BD84B56F
:103AC000816084BD85B5826085BD85B5816085BD19
:103AD00080916E00816080936E00109281008091D1
:103AE0008100826080938100809181008160809359
:103AF0008100809180008160809380008091B1007E
:103B000084608093B1008091B00081608093B000A8
:103B100080917A00846080937A0080917A0082603C
:103B200080937A0080917A00816080937A008091FE
:103B30007A00806880937A001092C100E091790445
:103B4000F0917A0482E08083E0917504F09176042C
:103B50001082E0917704F09178048FEC80831092CA
:103B60008104E0917D04F0917E0486E08083E09101
:103B70007B04F0917C04808180618083E0917B04F0
:103B8000F0917C04808188608083E0917B04F091D7
:103B90007C04808180688083E0917B04F0917C04C8
:103BA00080818F7D80838AE591E00E940B136FED09
:103BB00071E089E694E00E94FC1260EB71E089E616
:103BC00094E00E94FC1260EF71E089E694E00E94AC
:103BD000FC1260EB71E089E694E00E94FC1288E33D
:103BE00091E00E940B1385E091E00E940B1381EE9F
:103BF00090E00E940B1381EA90E00E940B1361E0B9
:103C00008DE00E94E00960E08EE00E94E00960E043
:103C100085E00E94B20961E085E00E94E00960E071
:103C200085E00E94B20960E085E00E94B20961E08F
:103C300085E00E94E00960E085E00E94B20960E052
:103C400086E00E94B20961E086E00E94E00960E03F
:103C500086E00E94B2090E94F70D81E080933D0446
:103C600080E680935F0410923E041092600481E02D
:103C70000E942F0E811103C18CEC94E00E943F1131
:103C800081E190E00E94C510BC0190E080E00E94BC
:103C9000CB3120E030E040EA5BE30E942C3220E0B0
:103CA00030EE4FEB5FE30E94E43320E030E0A90107
:103CB0000E94F93418160CF06DC081E190E00E946A
:103CC000C510BC0190E080E00E94CB3120E030E0E4
:103CD00040EA5BE30E942C3220E030EE4FEB5FE3E2
:103CE0000E94E4332DEC3CEC4CEC5DE30E94C631C9
:103CF00018160CF46CC081E1809341030E94F70D0B
:103D000010922305109222058CE2E2E2F1E0DE013E
:103D1000119601900D928A95E1F79E012F5F3F4F1A
:103D2000790110E000E0DD24D394D70112968C9144
:103D3000D0923D0480935F0410923E041092600480
:103D400081E00E942F0E81119CC0000F111F000FF7
:103D5000111FE1E0F0E0EC0FFD1FE00FF11F80818B
:103D60009181909323058093220580912205909163
:103D700023058031910509F4CDC208F0A6C0823038
:103D8000910509F40EC108F086C0019709F4C4C07A
:103D90008AE7BFC081E190E00E94C510BC0190E0BD
:103DA00080E00E94CB3120E030E040EA5BE30E94FB
:103DB0002C3220E030EE4FEB5FE30E94E4332DEC39
:103DC0003CEC4CEC5DEB0E94F93487FF94CF85E12D
:103DD00090E00E94C510BC0190E080E00E94CB31D1
:103DE00020E030E040EA5BE30E942C3220E030EE3D
:103DF0004FEB5FE30E94E43320E030E0A9010E9432
:103E0000F9341816FCF485E190E00E94C510BC015D
:103E100090E080E00E94CB3120E030E040EA5BE3BC
:103E20000E942C3220E030EE4FEB5FE30E94E4333F
:103E30002DEC3CEC4CEC5DE30E94C6311816FCF016
:103E400085E15ACF85E190E00E94C510BC0190E069
:103E500080E00E94CB3120E030E040EA5BE30E944A
:103E60002C3220E030EE4FEB5FE30E94E4332DEC88
:103E70003CEC4CEC5DEB0E94F93487FFE1CF8FEF17
:103E80003BCF0F5F1F4FB4E0EB0EF11C0B30110561
:103E900009F04BCF6ACF8430910509F4FFC1089730
:103EA00009F076CF89E190E00E9403358C01FC0196
:103EB000138212828CE591E091838083108A8FEFC8
:103EC00087871686118A83E27EC08034910509F4C3
:103ED0003FC2B0F4809709F05BCF89E190E00E9487
:103EE00003358C01FC01138212828CE591E09183F1
:103EF0008083108A8FEF87871686118A85E263C0D8
:103F00008038910509F442C28115984009F040CFEC
:103F10008DE30E948E0774C089E190E00E94033512
:103F20008C01DC0113961C921E9212978CE591E095
:103F300011969C938E9350961C9250978FEF1F96DC
:103F40008C931F971E961C921E9751961C92519708
:103F500080E21B968C931B971C961C921C971D96B7
:103F60001C921D971A961C921E92199794E05296D5
:103F70009C93529792E053969C93539791E054965A
:103F80009C93549790E155969C93559756968C9395
:103F9000569780E457968C93579780E858968C9361
:103FA00025C089E190E00E9403358C01FC01138259
:103FB00012828CE591E091838083108A8FEF87874E
:103FC0001686118A81E283871486158612861186E9
:103FD00084E0828B82E0838B81E0848B80E1858B1F
:103FE00080E2868B80E4878B80E8808F50E040E021
:103FF00063E0C8010E946206109325050093240522
:1040000080912205909123058032910509F4D8C151
:1040100008F04AC28430910509F4ADC208F0C9C164
:104020000197029708F4A7C210923803109239033F
:1040300010923A0310923B0310923C0310926A03D1
:104040000E945A1760E173E00E94341780911003B8
:1040500090911103A0911203B09113038130ECE50C
:104060009E07ECEBAE07B10509F4C1C281E09CE507
:10407000ACEBB0E08093420390934303A0934403DE
:10408000B0934503109246031092470310924803E1
:10409000109249031092620310926303109264031A
:1040A0001092650310924B0310924A030E94AC10C9
:1040B0000E94AA17109261041092A0051092A20506
:1040C0001092A10510929F0510929E0510929D05D9
:1040D00010929C0510929B0510929A0510929905DA
:1040E0001092980564EF71E080E090E00E94360A3B
:1040F0008091A205811104C00E94B4038111FCC209
:104100001092A0051092A2051092A10592E2FE0164
:104110003596DF01292F1D922A95E9F785EB8983D2
:1041200082E68A8386E08B8381E38C8380E28D83C1
:1041300081E0888722E32B8720E82A8F2E8F2FEEBD
:104140002BA321E92FA398A720EA2F8796E8988B25
:10415000898B2B8B9C8B8D8B90E080E032979E011E
:10416000295D3F4F4191840F980FE217F307D1F774
:104170008FA398A7F12C6E0139E2C30ED11CEE2457
:10418000E3945E0145E3A40EB11C8E010F5F1F4F47
:1041900080913B0590913C05D8016D918D01DC012A
:1041A000ED91FC910190F081E02D099580913B0506
:1041B00090913C05DC01ED91FC910680F781E02DAA
:1041C0000995C016D10621F760EB71E080913B059F
:1041D00090913C050E94FC1280913B0590913C051A
:1041E000DC01ED91FC910680F781E02D09950E949C
:1041F000F30A2B013C018AE0EEE4F1E0DE019D963A
:1042000001900D928A95E1F710E000E080913B0566
:1042100090913C05DC01ED91FC910084F185E02D4D
:104220000995892BB1F080913B0590913C05DC010B
:10423000ED91FC910284F385E02D0995EDE2F0E02B
:10424000EC0FFD1FE00FF11F9081891397C30F5FE3
:104250001F4F0A3011050CF097C30E94F30A64192E
:104260007509860997096D3D75408105910508F02E
:10427000A5C30430110551F688A98111C7CF81E08B
:10428000F80EEAE0FE1202C0E09246058BEF8F0DB9
:10429000823008F0A5C2FCEFFF0E77CF89E190E0F5
:1042A0000E9403358C01DC0113961C921E9212971A
:1042B0008CE591E011969C938E9350961C925097AA
:1042C0008FEF1F968C931F971E961C921E975196E8
:1042D0001C92519782E21B968C931B971C961C9202
:1042E0001C971D961C921D971A961C921E92199748
:1042F00084E052968C93529782E053968C93539716
:1043000081E054968C93549780E155968C93559701
:1043100080E23CCE89E190E00E9403358C01DC0113
:1043200013961C921E9212978CE591E011969C9325
:104330008E9350961C9250978FEF1F968C931F97D9
:104340001E961C921E9751961C92519784E2C3CFE1
:1043500089E190E00E9403358C01DC0113961C92E8
:104360001E9212978CE591E011969C938E93509635
:104370001C9250978FEF1F968C931F971E961C923E
:104380001E9751961C92519786E2A5CF89E190E045
:104390000E9403358C01FC01138212828CE591E0AE
:1043A00091838083108A8FEF87871686118A87E230
:1043B0000ACE8830910509F4DEC0409709F034CE6A
:1043C0008091240590912505DC01ED91FC910084FC
:1043D000F185E02D20E044E064E109958091240519
:1043E000909125050E94CE0662E08091240590916F
:1043F00025050E9481068BE39FE10197F1F740E0DC
:1044000060E080912405909125050E94890666E56B
:1044100076E080912405909125050E94EA0B41E009
:1044200060E080912405909125050E94890665E44D
:1044300076E080912405909125050E94EA0B42E0E8
:1044400060E080912405909125050E9489060E94D4
:1044500027150E94FF0A67E775E080912405909177
:1044600025050E94811443E060E08091240590912D
:1044700025050E9489066DE675E0809124059091DE
:1044800025050E9481146CEA72E0809124059091C8
:1044900025050E9481146FE475E0809124059091B8
:1044A00025050E948114C0CD8115F2E09F0791F08F
:1044B00048F48034910509F483CF8038910509F4DC
:1044C0007FCFB2CD811534E0930721F0811598405C
:1044D00009F0AACDEFEBF1E0F0933505E093340558
:1044E0008491E0ECF1E0E491F82F319709F07BC082
:1044F00010922F0581E0809337050E94710780E0BC
:104500000E942A076EEA71E086E295E00E94EA0BBB
:1045100080E00E942A0762E086E295E00E94FD06A4
:104520006DE971E086E295E00E94EA0B80E00E946E
:104530002A0764E086E295E00E94FD060E942715A6
:104540000E94FF0A67E775E086E295E00E94811409
:1045500080E00E942A0766E086E295E00E94FD0660
:104560006FE475E086E295E00E9481146DE675E0E7
:1045700086E295E096CF8091240590912505DC0197
:10458000ED91FC910084F185E02D20E042E064E1B2
:10459000099580912405909125050E94CE0662E040
:1045A00080912405909125050E9481068BE39FE16F
:1045B0000197F1F768E776E0809124059091250551
:1045C0000E94EA0B41E060E080912405909125056E
:1045D0000E94890667E676E0809124059091250582
:1045E0000E94EA0BEDCE81E080932F0583CF80936C
:1045F000420390934303A0934403B09345038091F7
:10460000140390911503A0911603B09117038093A2
:10461000460390934703A0934803B09349038091C6
:10462000300390913103A0913203B0913303809312
:10463000620390936303A0936403B0936503809136
:1046400018039091190390934B0380934A03809130
:104650001A0390911B03A0911C03B0911D0380933A
:104660004C0390934D03A0934E03B0934F0380915E
:104670001E0390911F03A0912003B091210380930A
:10468000500390935103A0935203B093530380912E
:10469000220390912303A0912403B09125038093DA
:1046A000540390935503A0935603B09357038091FE
:1046B0002A0380935C0380912603809358038091A2
:1046C0002703809359038091280380935A03809194
:1046D000290380935B0380912C0390912D03A0917B
:1046E0002E03B0912F0380935E0390935F03A093FA
:1046F0006003B0936103DECC60E080EF0E941D0494
:1047000001E0E12CD12C11E00E945F04F82E0E9400
:104710005F04F1E0FF122FC0813009F04BC011346B
:1047200008F4EECCD092A005D11003C081E08093B4
:10473000A20580919805882309F4E2CCA8E9B5E0A8
:10474000E1E6F4E089E694E02D9121938E179F072E
:10475000D9F767E081E694E00E94200D909168040B
:104760008913D4CC0E94B40364EF71E080E090E040
:104770000E94360ACBCCEE2DF0E0F81211C08091E9
:10478000A0051817A8F4DF01AB56BA4F13968C9109
:10479000802381F4F12C193010F41093A105D12E4F
:1047A000EB56FA4F8381902F9095892383830BC01A
:1047B0008113F0CFEE2DF0E0EB56FA4F8381802B82
:1047C0008383FF24F3948F2D0E94ED031F5F000F5E
:1047D00011F4E39401E027E02E1508F095CF9FCF68
:1047E00052E05F1508F0D1CC81E092E00E94001504
:1047F00085E092E00E94001589E092E00E94001599
:104800008DE092E00E94001581E192E00E94001587
:1048100085E192E00E94001589E192E00E94001576
:104820008DE192E00E94001581E292E00E94001565
:1048300085E292E00E94001589E292E00E94001554
:1048400087E892E00E9400158DE292E00E94001538
:1048500083E992E09F938F9381E392E09F938F93FC
:104860001F9281E38F9389EB93E09F938F930E9434
:1048700012370E9489142DB73EB7285F3F4F0FB6FD
:10488000F8943EBF0FBE2DBF8DB69EB64DB75EB736
:104890004C5251090FB6F8945EBF0FBE4DBF0DB715
:1048A0001EB70F5F1F4F1D821E821F821886F5EBF9
:1048B000CF2EC982A2E6DA2EDA82B6E0EB2EEB82A8
:1048C00084E2F82EFC82CE0101960E94CD04CE0136
:1048D00001960E9486041AAA19AACDA6DEA6EFA602
:1048E000F8AA0E94F30A2B013C0150EA450E5FE052
:1048F000551E611C711C98E0E92EF12C28E0222E37
:10490000312CC32C032C000CDD08A22CB12C87E029
:10491000A80EB11C0E94F30A64157505860597055B
:1049200008F04EC0AC14BD040CF44AC080913B05A5
:1049300090913C05DC01ED91FC910084F185E02D26
:104940000995892B39F380913B0590913C05DC0159
:10495000ED91FC910284F385E02D0995282FF80153
:10496000EC0DFD1D8083B4E03B1609F462C0B31565
:104970000CF44BC037FE52C03394C3CF0330110543
:104980000CF46BCC808363CCFE01BF9690E080E09A
:104990002191820F980FEA15FB05D1F73B812BA9D6
:1049A00032136DCC3C812CA9321369CC2DA9821312
:1049B00066CC8EA9981363CC8AE062CC85E060CC8B
:1049C0000E94F30A6415750586059705A8F10FB6D0
:1049D000F8949EBE0FBE8DBE809122059091230556
:1049E0008032910559F008F09DC08430910531F076
:1049F00008F060C00197029708F063C08091240519
:104A0000909125050E94CE065CC0E5E03E12B4CF31
:104A1000982F8827E80EF91E2E2CAECFEDE2F0E09D
:104A2000EC0FFD1FEC0DFD1D8081281709F4A4CFAC
:104A300067CF7C01FF24A0CFF8E0EF0EF11C832D9F
:104A4000330C990BE816F90611F6D80115968C91DE
:104A5000159790E0982F882714962C91820F911D1E
:104A6000E2E030E020E0AC014A5F5F4F6E2F70E083
:104A70006417750740F4600F711FDB016C91260FFE
:104A8000320FEF5FF3CF400F511FFA014081241323
:104A90009ECF800F911FDC0117968C91381397CF12
:104AA00082E0F8018087C8010E94CD04C8010E94FD
:104AB00086048DCF8830910509F4A0CF409709F482
:104AC0009DCF0E94F30A60936B0370936C038093F5
:104AD0006D0390936E03CE0101961C010E94F30AB0
:104AE00021966CAF7DAF8EAF9FAF219789E694E0A2
:104AF0000E946C0C9CAF8BAF892B11F40C94DE30B0
:104B000000913B0510913C05D801ED91FC91E080AE
:104B1000F18089E694E00E944A0C682FC801F701F1
:104B20000995E4CF8115F2E09F07A1F040F48034AD
:104B3000910509F463CF8038910519F65FCF81158F
:104B400034E0930721F08115984009F0BACF0E9414
:104B50007107B7CF10E0612F86E295E00E94FD0655
:104B60008EE70E942A0760E286E295E00E94E30B4E
:104B70001F5F183081F70E94710780E00E942A07AA
:104B8000A0CF80E30C943A311F928F938FEB91E08A
:104B90009F938F931F92B7E0BF933F922F920E94F3
:104BA0001237B10189E694E00E9481148DE090E013
:104BB0000E94FB0C8AE090E00E94FB0C89E694E0E6
:104BC0000E94000D61E070E080E090E00E94360AF3
:104BD000EDB7FEB738960FB6F894FEBF0FBEEDBF27
:104BE0008F2D0F2C000C990B0E94FB0C00910A05D5
:104BF00010910B05F801E555FF4F80819181A2814D
:104C0000B3810196A11DB11D80839183A283B383DB
:104C100098012B553F4F2901A8014D565F4F3A018E
:104C200054E2F51609F4A1C25F150CF4D0C08AE075
:104C3000F81619F09DE0F912ABC2D201EC91EF30F9
:104C400008F05EC1E00FF12FF11DEC56FF4F10820E
:104C5000F301E080EE2009F456C1F801EC56FF4F55
:104C60002081822F022E000C990B3FEB320F363041
:104C700008F0BBC0C7978295807FF801EB56FF4FC5
:104C80009081292F092E000C330B4FEB490F463032
:104C900008F0B3C027533109820FF801EE56FF4FD9
:104CA000908189131FC1B59680819181A281B381C2
:104CB0000196A11DB11D80839183A283B3836801F6
:104CC000F6EACF0ED11CD6018C91882371F0F80141
:104CD000E155FF4F80819181A281B3810196A11D91
:104CE000B11D80839183A283B383F801ED55FF4FFB
:104CF000B080BB2009F48AC0B1E0BB1234C0C80147
:104D000082960E94CC0BC801C0960E94CC0BF60183
:104D10008081882341F187E0F8017096D8011296CE
:104D200001900D928A95E1F787E0F8017796D80116
:104D3000199601900D928A95E1F70E94F30AD80125
:104D40005E966D937D938D939C9391971196BC92F3
:104D50001197BC92C801CE960E94B50BC801845B26
:104D60009F4F0E94B50B580129EAA20EB11CD50134
:104D7000CD90DC90C114D10411F40C94CD30D50148
:104D8000ED91FC9166A177A1F60186A197A10E9401
:104D9000F336892B11F00C94CD30B601C601409644
:104DA0000E94FC360E94F30AD60190966D937D9383
:104DB0008D939C939397E1E09596EC939597F1E012
:104DC0009496FC9394979A96CD90DC90D3CFAAE2D8
:104DD000FA1609F432CFBCE2FB12DAC1F801EE5642
:104DE000FF4F80818F25808328CF2156263018F4ED
:104DF0008755910940CFC0973ECF9156963018F411
:104E00002755310949CF2053310946CFC801C096F3
:104E10000E94CC0BF6018081882331F187E0F801F4
:104E20007096D801129601900D928A95E1F787E06D
:104E3000F8017796D801199601900D928A95E1F7BD
:104E40000E94F30AD8015E966D937D938D939C9397
:104E50009197E1E01196EC931197F1E0FC93C80172
:104E6000865A9F4F0E94B50B680128E6C20ED11CDE
:104E7000F60182859385A485B58586839783A0876F
:104E8000B1870E94F30AD60112966D937D938D939C
:104E90009C931597E1E01196EC931197F1E0FC9348
:104EA000C8018C579F4F0E94B50B680126E7C20EC0
:104EB000D11CF60182859385A485B5858683978369
:104EC000A087B1870E94F30AD60112966D937D9355
:104ED0008D939C931597E1E01196EC931197F1E077
:104EE000FC9341CFF801ED54FF4F80819181A28165
:104EF000B3810196A11DB11D80839183A283B383E9
:104F0000E12C0C94CD3098012C553F4F38AF2FAB8E
:104F1000D9013C91F801ED55FF4F5F01A8014755BC
:104F20005F4F4A01311147C0680154E9C50ED11CD9
:104F30006FE772E0C6010E94F336892B39F065E80D
:104F400072E0C6010E94F336892B01F5E1E0D5013C
:104F5000EC93F801E955FF4F80819181D4018D9345
:104F60009C93F401A080B180A114B10449F2B60170
:104F7000D50196968D919C910E94F33697FD02C0C3
:104F80000C94C630F50182A593A5E8CF6BE872E0DA
:104F9000C6010E94F336892B39F061E972E0C6013F
:104FA0000E94F336892B19F4D5011C92D2CF22E04E
:104FB000F5012083CECFE081E23009F446C0C8017C
:104FC0008C569F4FDC012C91222309F43EC0B0E2A5
:104FD000EB9FF0011124E32B3197E932F10508F042
:104FE00034C0EB50F84D0C94C2331E28602866285C
:104FF0006E2872289228A328A928AF2825282528BA
:105000002528252825282528252825282528252838
:105010002528252825282528252825282528252828
:10502000252825282528252825281E2857286028B2
:1050300066286E2872287928822888280E94A71658
:10504000F80166AB77AB80AF91AFF401C080D1803F
:105050005801F4E9AF0EB11CAFA9B8ADEC90C11482
:10506000D10409F44DCFD401ED91FC9166A177A153
:10507000F60186A197A10E94F336892B09F040CF53
:10508000D60198962D913C918E2D90E08217930732
:105090000CF436CF2817390731F440E150E0B50160
:1050A000C6010E940337F601C2A4D3A4D5CFF801EC
:1050B000EA55FF4F81E0213409F080E08083C5CFBD
:1050C000B801605F7F4F0E942016BFCF81E023357B
:1050D00009F080E0D80156968C93B7CFB801695E8D
:1050E0007F4FF1CF81E0273509F080E0F801858F0F
:1050F000ACCF0E94A716F801FE966287738784875B
:105100009587A3CF0E94A716F801E45BFF4FF5CF68
:105110000E948A31D80198966D937D938D939C93CC
:105120009B9793CFF801EA55FF4F81E021330CF4B0
:1051300080E0808329831A82C1010E948A31F801AC
:10514000EA58FF4FDACF0E948A31F801E859FF4F41
:10515000D4CF0E94A716F801EC57FF4FCECF0E9484
:10516000A716F801E65AFF4FC8CFD9011C92F801E3
:10517000EC55FF4F1082729710827196B2E0B083A7
:10518000F3011082F801EA55FF4F10820C94DE30D3
:10519000D201EC91EE3048F481E08E0F8C93E00F59
:1051A000F12FF11DEC56FF4FF082F3018081811148
:1051B0000C94DE30F801EE56FF4F8081F826F08225
:1051C0000C94DE30FAE0FF1621F02DE0F2120C9480
:1051D000DE300E94F30A60933803709339038093A2
:1051E0003A0390933B0312C00E94F30A21962CAD20
:1051F0003DAD4EAD5FAD2197621B730B840B950BDC
:105200006E3571408105910508F470CCF0905B0318
:1052100000910A0510910B05D801D1961C92D197E7
:10522000D2966D917D918D919C91D59724E630E039
:1052300040E050E00E948133F6121BC10E94F30A45
:10524000C0903803D0903903E0903A03F0903B03CC
:105250006C197D098E099F09613D77408105910593
:1052600008F407C10E94AC1040906B0350906C038F
:1052700060906D0370906E03C301B20128EE33E0BD
:1052800040E050E00E94A33369017A01CA01B901EC
:1052900023E030E040E050E00E94A333672B682B0E
:1052A000692B09F0ADC180916104882341F00E940F
:1052B000B4030E944C0461E084E40E941D048091C8
:1052C0005D0381110EC00E94F30A60547B428E4F31
:1052D0009F4F609366037093670380936803909376
:1052E00069030E947210882341F08FE090E00E94D1
:1052F000C51090934B0380934A030E94F30A6419EC
:105300007509860997096B3F71058105910508F4B8
:105310008BC20E94F30A60936B0370936C038093BB
:105320006D0390936E0381EF96E0FC012491E22FD0
:10533000F0E0EE0FFF1FEA52F94FC590D490FC0148
:105340002491E22FF0E0EE0FFF1FEE55F94FE590AC
:10535000F490E5E0F7E0B490FC018491E82FF0E0F0
:10536000EE0FFF1FE052F94F05911491D6018C9179
:10537000AB2CA0948A218C93F70180818B298083A8
:1053800061E070E080E090E00E94360A9FB7F894F8
:10539000D7018C918A218C93F60180818B2980839F
:1053A000D8018C918B2109F0C0C18C918B2109F01F
:1053B000BEC18C918B2109F0BCC18C918B2109F06D
:1053C000BAC18C918B2109F0B8C18C918B2109F065
:1053D000B6C18C918B2109F0B4C18C918B2109F05D
:1053E000B2C18C918B2109F0B0C18C918B2109F055
:1053F000AEC18C918B2109F0ACC18C918B2109F04D
:10540000AAC18C918B2109F0A8C18C918B2109F044
:10541000A6C18C918B2109F0A4C18C918B2109F03C
:10542000A2C18C918B2109F0A0C181E19FBFF6013F
:105430009081A922A082D701EC91BE2ABC9284302F
:1054400008F497C180913C038F5F80933C03809167
:105450003C03863008F48FC110923C0380916A03AC
:10546000811185C1B1E0B0936A0381E00E943011DF
:1054700080C1F801118264817581868197810E94C3
:10548000CB3128E23BE64EE65EE40E9451346B01EC
:105490007C01D80112966D917C9190E080E00E9491
:1054A000CB319B01AC01C701B6010E94E533F80185
:1054B00020852111905860934C0370934D03809385
:1054C0004E0390934F03D8011B966D917D918D9162
:1054D0009C911E970E94CB3128E23BE64EE65EE4AB
:1054E0000E9451346B017C01F8016185728590E066
:1054F00080E00E94CB319B01AC01C701B6010E9444
:10550000E533D8011F962C912111905860935003D8
:10551000709351038093520390935303F801E65A1A
:10552000FF4F118266817781808591850E94CD3100
:1055300020E030E048EC52E40E9451346093540380
:10554000709355038093560390935703F80111AA63
:10555000C2A8D3A8E4A8F5A8C701B60120E432E4A4
:105560004FE050E00E94813320935803C701B601F9
:1055700020E137E240E050E00E948133CA01B901E6
:1055800024E630E040E050E00E948133609359030C
:10559000C701B60124E630E040E050E00E948133CC
:1055A000F62ECA01B90124E630E040E050E00E9446
:1055B000813360935A03F0925B03F801E859FF4F7F
:1055C0001182868180935C033E961182868180934E
:1055D0005D033E96118266817781808591850E9468
:1055E000CD3120E030E048EC52E40E945134609329
:1055F0005E0370935F03809360039093610334CEE6
:10560000C701B60125E030E040E050E00E94A3333E
:10561000672B682B692B09F052CE8DEC9CECA7EC24
:10562000B2EC80933D0390933E03A0933F03B0936D
:10563000400380916104823259F0883249F0992404
:105640009394803131F06DEC7CEC87EC92EC57C098
:10565000912C0E94B4030E944C0460E08EEB0E94E7
:105660001D048E010F5F1F4F5E01FAE0AF0EB11CEB
:105670000FAB812E68E0C62ED12CF12CEE24E394E2
:105680000E945F048111FE28EE0C21E0C21AD108AD
:10569000B9F7D801FD928D01AA16BB0659F768E04B
:1056A0008FA9982D0E94200D99858913CCCF6981EF
:1056B0007A81992069F153E0660F771F5A95E1F7D7
:1056C0008885803141F42F818CE090E0821B910924
:1056D000607F680F791F072E000C880B990B0E94C2
:1056E000CD3120E030E040E85DE30E942C32609351
:1056F0003D0370933E0380933F0390934003609378
:105700006203709363038093640390936503D7CD22
:105710008D81807611F4687FDECF803211F46C7F4A
:10572000DACF8034C1F66E7FD6CF80E07FCE81E0C5
:105730007DCE82E07BCE83E079CE84E077CE85E0BB
:1057400075CE86E073CE87E071CE88E06FCE89E0BB
:105750006DCE8AE06BCE8BE069CE8CE067CE8DE0BB
:1057600065CE8EE063CE8FE061CE80E15FCE109299
:105770006A0310923C0380916A03882309F4BCC039
:105780000E94F30A28EE33E040E050E00E948133AB
:10579000622F617085E00E94B20900914A03109166
:1057A0004B03B80190E080E00E94CB316B017C019B
:1057B00020E030E0A9010E94F934181654F48091D9
:1057C0005C03843008F425C180915D03882309F4CB
:1057D00020C10E94F30A8090660390906703A09016
:1057E0006803B090690386169706A806B90608F004
:1057F000E5C080915C03843008F4E0C080915D03D3
:10580000882309F4DBC020E030E0A901C701B6011C
:105810000E94F93418160CF4C1C080E00E943011C7
:1058200061E085E00E94B2090E94F30A28EE33E0AD
:1058300040E050E00E948133622F61708DE00E9451
:10584000B2090E947210882309F4EDC060914A03E6
:1058500070914B0390E080E00E94CB3120E030E07B
:1058600040EA5BE30E942C326B017C010E94C3344E
:105870004B0120E030E048EC52E4C701B6010E9441
:105880002C326B017C01B401092C000C880B990BA4
:105890000E94CD3120E030E048EC52E40E942C32EE
:1058A0009B01AC01C701B6010E94E4330E94C334DE
:1058B0006B0178AF6FAB8091220590912305803208
:1058C000910509F4C3C008F003C28430910509F4BE
:1058D00049C308F0B4C00197029708F443C380E0BD
:1058E00090E0892B09F4FAC80E94780C882309F407
:1058F000F5C80E940000F2C80E947210882309F4C3
:105900004CCF0E948F10811146C060916B03709143
:105910006C0380916D0390916E0328EE33E040E0BC
:1059200050E00E94A333CA01B9012AE030E040E010
:1059300050E00E94A333672B682B692B31F48091D0
:1059400041038F3F11F00E94A71260916B03709189
:105950006C0380916D0390916E03613CE4ED7E07D2
:10596000E1E08E0791050CF418CF28EE33E040E01B
:1059700050E00E94A333CA01B90128E730E040E0BB
:1059800050E00E94A333672B682B692B09F005CFE9
:105990000E94AA1702CF0E94E212FFCE8FE090E091
:1059A0000E94C5100817190719F18FE090E00E94B6
:1059B000C510801B910B029708F42FCF0E94F30AA9
:1059C000613C744D8140910540F480915C038430CA
:1059D00020F080915D03811116C00E94F30A24EF2C
:1059E00031E040E050E00E948133622F617019CFB6
:1059F0008FE090E00E94C510081B190B02301105C2
:105A000008F40BCFDBCF0E94E21281E00E9430113C
:105A1000E4CF809141038F3F11F00E94A71281E0F3
:105A20000E94301101CF0E948F10882309F40ECFFD
:105A30008091410390E00E94C510BC010BCF8830DB
:105A4000910509F48FC2409709F049CF40E060E02A
:105A500080912405909125050E94890610E080918F
:105A600024059091250520915C03121730F46FEF07
:105A70000E94E30B1F5F193091F780915C038A301D
:105A800038F46FEF80912405909125050E94E30B77
:105A900040915C0350E070E060E02AE080912405D2
:105AA000909125050E941E13009124051091250553
:105AB0000E949810682FC8010E94E30B10915C03AC
:105AC0001A3008F019E01D5F40E0612F8091240535
:105AD000909125050E94890660E2809124059091AD
