:100000000C9463000C948B000C948B000C942F05C3
:100010000C942F050C942F050C948B000C948B00E2
:100020000C948B000C948B000C948B000C948B0024
:100030000C948B000C948B000C948B000C948B0014
:100040000C94E5040C948B000C948B000C948B00A6
:100050000C948B000C948B000C948B000C948B00F4
:100060000C94A7050C948B000000000024002700CE
:100070002A0000000008000201000003040700003D
:1000800000000000000000000000230026002900FE
:1000900000000000250028002B00040404040404D0
:1000A0000404020202020202030303030303010227
:1000B00004081020408001020408102001020408F6
:1000C0001020C606A60B11241FBECFEFD8E0DEBF5E
:1000D000CDBF11E0A0E0B1E0E8EFFCE102C0059087
:1000E0000D92A439B107D9F722E0A4E9B1E001C02B
:1000F0001D92A63EB207E1F710E0C2E6D0E004C0D0
:100100002197FE010E94440DC136D107C9F70E9414
:1001100087070C946F0E0C94000008950895AF9219
:10012000BF92CF92DF92EF92FF920F931F93CF93E4
:10013000DF936C017B018B01040F151FEB015E0146
:10014000AE18BF08C017D10759F06991D601ED91DB
:10015000FC910190F081E02DC6010995892B79F77A
:10016000C501DF91CF911F910F91FF90EF90DF902C
:10017000CF90BF90AF900895833081F028F4813004
:1001800099F08230A9F008958730A9F08830C9F03D
:100190008430B1F4809180008F7D03C08091800015
:1001A0008F7780938000089584B58F7784BD0895FC
:1001B00084B58F7DFBCF8091B0008F778093B000A6
:1001C00008958091B0008F7DF9CF1F93CF93DF9377
:1001D000282F30E0F901EE58FF4F8491F901E255E4
:1001E000FF4FD491F901E656FF4FC491CC23A9F0FB
:1001F000162F81110E94BC00EC2FF0E0EE0FFF1FC4
:10020000E057FF4FA591B4918FB7F894EC9111117D
:1002100008C0D095DE23DC938FBFDF91CF911F9173
:100220000895DE2BF8CFCF93DF9390E0FC01E255E9
:10023000FF4F249186569F4FFC0184918823D1F073
:1002400090E0880F991FFC01E859FF4FA591B491E8
:10025000FC01E057FF4FC591D49161110EC09FB7CB
:10026000F8948C91E22FE0958E238C932881E223E1
:10027000E8839FBFDF91CF9108958FB7F894EC91F9
:10028000E22BEC938FBFF6CF3FB7F89480911D021D
:1002900090911E02A0911F02B091200226B5A89B4A
:1002A00005C02F3F19F00196A11DB11D3FBFBA2F08
:1002B000A92F982F8827BC01CD01620F711D811DC8
:1002C000911D42E0660F771F881F991F4A95D1F74D
:1002D00008958F929F92AF92BF92CF92DF92EF924A
:1002E000FF924B015C010E9444016B017C010E9462
:1002F00044016C197D098E099F09683E7340810590
:100300009105A8F321E0821A9108A108B10888EEAE
:10031000C80E83E0D81EE11CF11C81149104A104D5
:10032000B10429F7FF90EF90DF90CF90BF90AF908E
:100330009F908F90089520912302309124022817D6
:10034000390771F49091210280912202981741F0AF
:10035000E0912102F0E0E852FE4F808190E00895A4
:100360008FEF9FEF08950895EF92FF920F931F93E1
:10037000CF93DF93DC015C96ED90FC905D97E114E8
:10038000F10479F481E090E013969C938E93129798
:1003900090E080E0DF91CF911F910F91FF90EF905F
:1003A00008955196ED91FC91529750968C915097EB
:1003B000982F90950FB75E962C915E97122F127022
:1003C00021FD6095F8942081112319F1282B2083B9
:1003D000E7012197F1F728E0462F50E0308160FFD8
:1003E0001AC0382B3083E7012197F1F7BA017595D0
:1003F0006795215089F7112381F0808189238083BB
:100400000FBF5C968D919C910197F1F781E090E090
:10041000C1CF2923DCCF3923E5CF9081892BEFCFC2
:1004200020912302309124022817390761F480912A
:1004300022022091210290E0805C9F4F821B910953
:100440008F739927089590E080E00895209123020A
:100450003091240228173907B9F490912102809134
:100460002202981789F0E0912102F0E0E852FE4F55
:1004700080812091210230E02F5F3F4F2F7333277F
:100480002093210290E008958FEF9FEF089520912F
:10049000B501260F3327331F21323105ECF42091AB
:1004A0007102FC0190E080E0243069F082E0089560
:1004B000A091B5012191AC014B565E4FA40FB52F11
:1004C000B11D2C930196861798F38091B501680FA2
:1004D0006093B50180E0089581E008951092710263
:1004E00081E08093700210924B0261E082E10E94F1
:1004F000E50061E083E10E94E500E9EBF0E0808146
:100500008E7F808380818D7F808388E48093B80094
:1005100085E48093BC000895CF93DF9391E090939E
:1005200094018823B9F0C091B800D091BA008091AD
:10053000BC008A7B8093BC0060E082E10E94E50001
:1005400060E083E10E94E5000E946E02D093BA0051
:10055000C093B800DF91CF9108958F929F92AF9290
:10056000BF92CF92DF92EF92FF920F931F93CF93A0
:10057000DF93D0919A02D13208F0D7C0182FC091E2
:1005800099020E9444016B017C01809171028111EA
:100590006BC082E080937102109370028FEF8093A2
:1005A0006F0210926E02D0936D02A9E7B2E0EDE403
:1005B000F2E080E0D81391C010924C0280914C027E
:1005C000CC0FC82BC0934C0280914B02813009F0B4
:1005D00088C010924B020E9444016B017C01809103
:1005E0004C028093BB008091730290917402A091A1
:1005F0007502B0917602892B8A2B8B2BA1F00E9479
:10060000440100917302109174022091750230919F
:1006100076026C197D098E099F09061717072807AE
:10062000390708F442C08091BC0083FDD8CF85EC27
:100630008093BC000E9444016B017C018091710297
:10064000823009F450C080916F028F3F09F46FC06F
:1006500080916F02803209F46CC080916F02803308
:1006600009F469C084E026C08091730290917402FD
:10067000A0917502B0917602892B8A2B8B2B09F4FD
:1006800084CF0E9444018090730290907402A090E5
:100690007502B09076026C197D098E099F09861645
:1006A0009706A806B90608F070CF809172020E94E2
:1006B0008C0285E01092780210929A0210927702D2
:1006C000DF91CF911F910F91FF90EF90DF90CF902E
:1006D000BF90AF909F908F9008959D9191938F5F61
:1006E00069CF85EEA5CF8091730290917402A0919D
:1006F0007502B0917602892B8A2B8B2B09F49ECF41
:100700000E944401009173021091740220917502BD
:10071000309176026C197D098E099F09061717071B
:100720002807390708F08ACFC0CF81E0C3CF80E027
:10073000C1CF82E0BFCF83E0BDCFE0914A0280917C
:100740004902E81730F4F0E0EB5DFD4F808190E066
:1007500008958FEF9FEF089590914A02809149028A
:100760002FEF3FEF981748F4E92FF0E0EB5DFD4FD6
:10077000208130E09F5F90934A02C90108958091E3
:10078000490290914A02891B990B0895CF92DF92FA
:10079000EF92FF920F931F93CF93DF937C01CB01D6
:1007A0008A0120917702222389F0EB016B01C40EAC
:1007B000D51ECC15DD0569F06991D701ED91FC914D
:1007C0000190F081E02DC7010995F3CF642F0E94BD
:1007D0004702C801DF91CF911F910F91FF90EF90D9
:1007E000DF90CF900895CF93DF931F92CDB7DEB700
:1007F0006983209177022223F9F020919A02203216
:1008000058F021E030E0FC013383228390E080E067
:100810000F90DF91CF91089580917802E82FF0E05A
:10082000E758FD4F998190838F5F80937802809382
:100830009A0281E090E0ECCF61E0CE0101960E9447
:100840004702F7CF90E080E00895CF93DF93EC016B
:100850008B818823A1F0888191E090937702809327
:1008600099021092780210929A0281E00E94AD02E1
:1008700091E0811190E0892FDF91CF91089510923E
:100880004A02109249021092780210929A020E9433
:100890006E028DE890E090934802809347028EE8C4
:1008A00090E0909346028093450281E08B83CE01D5
:1008B0000E942504982F8111CECFDDCF1F93CF93B7
:1008C000DF93DC011496ED91FC91E417F50710F429
:1008D00090E01FC0122FEA01FC01818192812081EA
:1008E00031E03093770220939902109278021092AF
:1008F0009A02DC01ED91FC910280F381E02D0995D3
:10090000C817D90729F7812F0E94AD0291E0811104
:10091000DFCF892FDF91CF911F910895CF93DF9380
:1009200000D0CDB7DEB789836A8321E042E050E092
:10093000BE016F5F7F4F8091BE029091BF020E9407
:100940005E04811107C084E091E00F900F90DF9169
:10095000CF91089590E080E0F8CF85ED8093BC00C2
:100960008091730290917402A0917502B091760209
:100970000796A11DB11D23E0B695A795979587957C
:100980002A95D1F72091BC0024FD03C0109271027A
:1009900008954091730250917402609175027091B4
:1009A0007602452B462B472B69F30097A105B1052D
:1009B00041F02AE22A95F1F700C00197A109B10997
:1009C000E1CF809172020C948C021F920F920FB6AD
:1009D0000F9211242F933F938F939F93AF93BF93C5
:1009E0008091190290911A02A0911B02B0911C02F1
:1009F0003091180223E0230F2D3758F50196A11DE1
:100A0000B11D209318028093190290931A02A093AB
:100A10001B02B0931C0280911D0290911E02A091B6
:100A20001F02B09120020196A11DB11D80931D02ED
:100A300090931E02A0931F02B0932002BF91AF912A
:100A40009F918F913F912F910F900FBE0F901F900C
:100A5000189526E8230F0296A11DB11DD2CF1F9233
:100A60000F920FB60F9211242F933F934F935F93E2
:100A70006F937F938F939F93AF93BF93EF93FF9366
:100A8000E0912302F0912402309749F0A685B785C2
:100A90008585968D91FF14C09C918923A1F4FF91C7
:100AA000EF91BF91AF919F918F917F916F915F91E6
:100AB0004F913F912F910F900FBE0F901F9018955F
:100AC0009C91892361F7A389B4899C91858980953C
:100AD00089238C93868997890197F1F7608D718DB1
:100AE000A685B785558538E020E0CB010197F1F761
:100AF000822F90E095958795282F4C91452309F0FA
:100B00002068315091F7868D81FD209580912202D9
:100B100090E001968F73992730912102381799F050
:100B2000A0912202B0E0A852BE4F2C9380932202E3
:100B3000828D938D0197F1F7A389B4898C91958962
:100B4000892B8C93ACCF868D8160868FF1CF1F92DD
:100B50000F920FB60F9211242F933F934F935F93F1
:100B60006F937F938F939F93AF93BF93EF93FF9375
:100B70008091B900887F803609F44AC0F0F5883248
:100B800009F4A7C018F5803109F49BC0B8F4882394
:100B900009F4F9C0883009F494C0FF91EF91BF9136
:100BA000AF919F918F917F916F915F914F913F9105
:100BB0002F910F900FBE0F901F901895883109F458
:100BC00088C0803251F780936F0214C0803409F4DA
:100BD0009DC040F48033B9F38833F9F680936F02F7
:100BE00085ECB0C0803509F485C0883509F496C01D
:100BF000883499F60E94AD04D0CF883909F48CC0AE
:100C000038F5883729F050F4883611F0803729F606
:100C100083E0809371021092D70157C0883809F49D
:100C20007BC0803919F0803809F0B7CF8091D701A7
:100C3000803208F071C0E091D70181E08E0F80937F
:100C4000D7018091BB00F0E0E954FE4F80833DC0A6
:100C5000803B39F0E0F4803A09F479C0883A09F031
:100C60009CCF84E0809371021092B6011092B5017E
:100C7000E0914702F091480209958091B5018111F8
:100C80000FC081E08093B5011092950109C0803CAE
:100C900009F4A6CF883C09F4A3CF883B09F07DCFA7
:100CA000E091B60181E08E0F8093B601F0E0EB5643
:100CB000FE4F80818093BB009091B6018091B50179
:100CC00029C080914C028093BB0085EC8093BC00CE
:100CD00064CF90916E0280916D02981758F5E09163
:100CE0006E0281E08E0F80936E02F0E0E35BFD4FB9
:100CF0008081E9CFE0916E0281E08E0F80936E02D9
:100D00008091BB00F0E0E35BFD4F808390916E0229
:100D100080916D029817C8F285E8D8CFE0916E02F5
:100D200081E08E0F80936E028091BB00F0E0E35B68
:100D3000FD4F80838091700281115CCF81E08093B0
:100D40004B0284EA8093BC001092710226CF85EC9E
:100D50008093BC00109271028091D701803230F4F0
:100D6000E091D701F0E0E954FE4F10826091D70185
:100D700070E0E0914502F091460287EB91E0099521
:100D80001092D7010ACF10926F0234CF10929E02B8
:100D900010929D0288EE93E0A0E0B0E080939F0265
:100DA0009093A002A093A102B093A20223E731E0A6
:100DB00030939C0220939B021092C6021092C502AF
:100DC0008093C7029093C802A093C902B093CA024D
:100DD00085E891E09093C4028093C3021092DA02F6
:100DE0001092D9021092DC021092DB021092DE0205
:100DF0001092DD021092E0021092DF026091E10297
:100E00006E7F6D7F6093E1026695617081E0682777
:100E100083E00E94E50061E083E00E941301E1EBC2
:100E2000F0E0E491E093D302EDE9F0E0E491F0E04A
:100E3000EE0FFF1FE057FF4F859194919093D502DD
:100E40008093D40260E084E00E9413018091E1026B
:100E500081FD04C061E084E00E94E50084E08093AD
:100E6000CF02E2EBF0E0E491E093D002EEE9F0E0B3
:100E7000E491F0E0EE0FFF1FEA57FF4F8591949148
:100E80009093D2028093D1021092BF021092BE02C0
:100E90001092A90280E498E7ADE7B1E08093AA023E
:100EA0009093AB02A093AC02B093AD0280EC90E0C3
:100EB0009093AF028093AE028EE190E0A0E0B0E0AC
:100EC0008093B0029093B102A093B202B093B302A8
:100ED0001092B4021092B5021092B6021092B702AC
:100EE0001092B8021092B9021092BA021092BB028C
:100EF0001092BC021092BD021092C0021092C10268
:100F00001092C2021092A8021092A7020895CF93E5
:100F1000DF93CDB7DEB72A970FB6F894DEBF0FBECA
:100F2000CDBF789484B5826084BD84B5816084BD72
:100F300085B5826085BD85B5816085BD80916E0077
:100F4000816080936E0010928100809181008260A8
:100F500080938100809181008160809381008091E5
:100F600080008160809380008091B10084608093D4
:100F7000B1008091B00081608093B00080917A00D0
:100F8000846080937A0080917A00826080937A00F6
:100F900080917A00816080937A0080917A008068E5
:100FA00080937A001092C1001092DE021092DD024E
:100FB0001092DC021092DB021092DA021092D90237
:100FC0008DE991E09093E0028093DF029091CF024F
:100FD000963108F047C02DEB30E03093DA022093D1
:100FE000D9022BE931E03093DC022093DB022CE2C2
:100FF00031E03093DE022093DD022091680084E02E
:10100000983048F031E09E3008F430E081E001C0D3
:10101000880F3A95EAF7822B809368002DE630E03E
:10102000983050F02BE630E09E3030F02CE630E087
:10103000963110F030E020E03093D7022093D602B2
:10104000292F30E0983008F0CBC181E001C0880F33
:101050009A95EAF78093D8028091DF029091E0029E
:101060000197F1F78091DD029091DE02892B49F121
:10107000E0912302F091240282E0E33CF80709F1B9
:10108000309739F0A389B4899C918589809589230B
:101090008C938091E1028E7F8093E1021092220274
:1010A0001092210283EC92E0909324028093230219
:1010B000E091D602F091D70280819091D802892BDD
:1010C00080838091A7029091A802009711F00E945E
:1010D000E60D86E090E00E944A0D8C0180E6D80182
:1010E0008C938BE992E012969C938E9311971396B2
:1010F0001C92139780E290E015969C938E93149720
:101100001093A8020093A70210924A02109249027B
:101110001092780210929A020E946E028DE890E07E
:1011200090934802809347028EE890E090934602A5
:101130008093450281E0F8018383C8010E94250461
:1011400061E08DE00E94130161E085E00E941301DF
:1011500061E086E00E94130160E08EE00E941301CE
:1011600060E085E00E94E50060E086E00E94E50026
:101170001092B9008CE08093B80080E489839CE8E9
:101180009A838B8321E043E050E0BE016F5F7F4F85
:101190008091A7029091A8020E945E04882329F002
:1011A0001092B90088E48093B8008091BE029091BB
:1011B000BF02009711F00E94E60D86E090E00E94C9
:1011C0004A0D8C0180E6D8018C938BE992E012964F
:1011D0009C938E93119713961C92139780E290E044
:1011E00015969C938E9314971093BF020093BE02A2
:1011F00010924A02109249021092780210929A02BA
:101200000E946E028DE890E090934802809347021E
:101210008EE890E0909346028093450281E0F801C9
:101220008383C8010E942504882309F477C26FEFE5
:1012300083E00E948E04892B09F070C260E880E18F
:101240000E948E04892B09F069C260E881E10E9446
:101250008E04892B09F062C260E882E10E948E044C
:10126000892B09F05BC260E883E10E948E04892B20
:1012700009F054C260E884E10E948E04892B09F0D1
:101280004DC260E885E10E948E04892B09F046C2B8
:1012900060E886E10E948E04892B09F03FC260E875
:1012A00087E10E948E04892B09F038C26091AE025A
:1012B00087EB0E948E04892B09F030C285E98A876A
:1012C000E090BE02F090BF0220E041E050E0BE019D
:1012D000665F7F4FC7010E945E04882309F4FEC049
:1012E000CC24C39433243A9465EEA62E75ECB72E25
:1012F00001E0D70114968D919C91892B09F400E0AF
:10130000802E912C102FF70120800E9444012B0188
:101310003C0180917102811170C0C09271020093F2
:10132000700230926F0210926E028FEF800F8093E6
:101330006D02C0924C0280914C02220C282A20920D
:101340004C0280914B02813009F09BC010924B02FD
:101350000E9444012B013C0180914C028093BB0010
:101360008091730290917402A0917502B0917602FF
:10137000892B8A2B8B2BA1F00E94440120917302B0
:10138000309174024091750250917602641975098A
:1013900086099709261737074807590708F44EC0EA
:1013A0008091BC0083FDD8CFB092BC000E94440164
:1013B0002B013C0180917102813009F465C080915C
:1013C0006E02801710F410916E02EDE4F2E0A5E2D7
:1013D000B2E080E08117B9F191919D938F5FFACFD0
:1013E0009E3040F42850310981E001C0880F2A95D1
:1013F000EAF730CE2E503109F7CF809173029091E9
:101400007402A0917502B0917602892B8A2B8B2BE6
:1014100009F47FCF0E94440120917302309174023D
:1014200040917502509176026419750986099709F1
:10143000261737074807590708F06BCF80917202CB
:101440000E948C0210E010924A0210934902012F70
:1014500010E00815190509F041C030E020E0201720
:101460003107A0F5D70111968D919C91DC01ED918A
:10147000FC910284F385E02D099521E030E0D82E1F
:10148000EECFA092BC0092CF809173029091740233
:10149000A0917502B0917602892B8A2B8B2B09F4CF
:1014A00089CF0E94440120917302309174024091CF
:1014B00075025091760264197509860997092617F5
:1014C00037074807590708F075CFB8CF012B09F443
:1014D0000FCF6D2D6F7785E90E948E041092B402B4
:1014E0001092B5021092B6021092B7021092B80292
:1014F0001092B9021092BA021092BB021092BC0272
:101500001092BD0211E01093A90260E08AE10E94EE
:101510008E04892B09F050C06AE08BE10E948E0492
:10152000892B09F049C060E08CE10E948E04892B70
:1015300009F042C061E28DE10E948E04892BE1F541
:1015400069E18EE10E948E04892BB1F560E08FE1A4
:101550000E948E04892B81F560E080E20E948E0457
:10156000892B51F566E081E20E948E04892B21F5DA
:1015700060EA81EB0E948E04892BF1F46091AA024B
:101580007091AB028091AC029091AD020E94F30B7E
:1015900026E636E64CE852E40E94AF0C1093B40203
:1015A0000E942E0C0E94C20B6093B5027093B6028B
:1015B0008093B7029093B8028091A902882331F1F9
:1015C0008091B402882311F18AE289831A8284E629
:1015D0008B838091C0028C8386E08D8386EC8E8322
:1015E0001F82188688E2898721E049E050E0BE0129
:1015F0006F5F7F4F8091BE029091BF020E945E0498
:10160000882321F06FE080E10E948E048091A9027E
:10161000882321F060E083E00E948E0448E250E0DD
:1016200061E471E083EC92E00E948F004CE250E0B4
:1016300065E171E083EC92E00E948F0045E150E0AB
:1016400060E071E083EC92E00E948F0061E086E050
:101650000E94E50093E4892E00E810E02CEBE22ED6
:1016600020E0F22E38EAC32E30E0D32E40E6742E6E
:1016700050E0A52E50E0B52E80927C0080917A003B
:10168000806480937A0080917A0086FDFCCF8091FF
:10169000780090917900F8018491F7019490F60117
:1016A0006490662009F44FC081110E94BC00E62DB1
:1016B000F0E0EE0FFF1FEA57FF4FA591B4918C9118
:1016C000982209F440C061E085E00E94E50060E0F6
:1016D00086E00E94E50081E0809377027092990293
:1016E0001092780210929A0268E08BE992E00E94D0
:1016F000F30364EC8BE992E00E94F30381E00E9423
:10170000AD0268EE73E080E090E00E946901A114F0
:10171000B10409F4B1CF0E940000AECF61E08DE0CA
:101720000E94E50064E670E080E090E00E946901BC
:1017300060E08DE00E94E50064E670E080E090E00B
:101740000E946901EBCF60E085E0C3CF85E891E0BE
:101750009093C4028093C30280912302909124024B
:10176000835C924071F4E091D602F091D7029081AF
:101770008091D80280958923808310922402109250
:10178000230208950E94760C88F09F5798F0B92F95
:101790009927B751B0F0E1F0660F771F881F991FA6
:1017A0001AF0BA95C9F714C0B13091F00E94A80C94
:1017B000B1E008950C94A80C672F782F8827B85FA4
:1017C00039F0B93FCCF3869577956795B395D9F7FE
:1017D0003EF490958095709561957F4F8F4F9F4F08
:1017E0000895E89409C097FB3EF490958095709514
:1017F00061957F4F8F4F9F4F9923A9F0F92F96E95D
:10180000BB279395F695879577956795B795F111D1
:10181000F8CFFAF4BB0F11F460FF1BC06F5F7F4F6E
:101820008F4F9F4F16C0882311F096E911C0772380
:1018300021F09EE8872F762F05C0662371F096E889
:10184000862F70E060E02AF09A95660F771F881F58
:10185000DAF7880F9695879597F908950E94900C6E
:1018600090F09F3748F4911116F00C94A90C60E0A9
:1018700070E080E89FEB089526F41B16611D711D32
:10188000811D0C94450C0C94600C882371F4772313
:1018900021F09850872B762F07C0662311F49927E3
:1018A0000DC09051862B70E060E02AF09A95660F8B
:1018B000771F881FDAF7880F9695879597F908950F
:1018C0009F3F31F0915020F4879577956795B795B4
:1018D000880F911D9695879597F9089557FD905813
:1018E000440F551F59F05F3F71F04795880F97FBE4
:1018F000991F61F09F3F79F087950895121613069E
:101900001406551FF2CF4695F1DF08C016161706CC
:101910001806991FF1CF8695710561050894089501
:101920000E94760CA0F0BEE7B91788F4BB279F3859
:1019300060F41616B11D672F782F8827985FF7CFB0
:10194000869577956795B11D93959639C8F3089557
:10195000E894BB2766277727CB0197F908950E9463
:10196000C20C0C94330D0E94250D38F00E942C0DF2
:1019700020F0952311F00C941C0D0C94220D1124D1
:101980000C94A90C0E946E0C70F3959FC1F3950FF7
:1019900050E0551F629FF001729FBB27F00DB11DF3
:1019A000639FAA27F00DB11DAA1F649F6627B00D83
:1019B000A11D661F829F2227B00DA11D621F739F6C
:1019C000B00DA11D621F839FA00D611D221F749F7A
:1019D0003327A00D611D231F849F600D211D822FC1
:1019E000762F6A2F11249F5750409AF0F1F08823E8
:1019F0004AF0EE0FFF1FBB1F661F771F881F915015
:101A00005040A9F79E3F510580F00C941C0D0C949A
:101A1000A90C5F3FE4F3983ED4F3869577956795DC
:101A2000B795F795E7959F5FC1F7FE2B880F911D3E
:101A30009695879597F9089597F99F6780E870E0E4
:101A400060E008959FEF80EC089500240A94161634
:101A5000170618060906089500240A94121613069C
:101A6000140605060895092E0394000C11F488232A
:101A700052F0BB0F40F4BF2B11F460FF04C06F5F46
:101A80007F4F8F4F9F4F0895EE0FFF1F0590F491EA
:101A9000E02D09940F931F93CF93DF93823091052C
:101AA00010F482E090E0E091E402F091E50230E091
:101AB00020E0B0E0A0E0309799F42115310509F459
:101AC0004AC0281B390B24303105D8F58A819B8107
:101AD0006115710589F1FB0193838283FE0111C0B9
:101AE000408151810281138148175907E0F048175E
:101AF000590799F4109761F012960C931297139668
:101B00001C933296CF01DF91CF911F910F910895D1
:101B10000093E4021093E502F4CF2115310551F052
:101B20004217530738F0A901DB019A01BD01DF011B
:101B3000F801C1CFEF01F9CF9093E5028093E40261
:101B4000CDCFFE01E20FF31F819391932250310913
:101B500039832883D7CF2091E2023091E302232BEF
:101B600041F420916B0130916C013093E30220939A
:101B7000E2022091690130916A012115310541F499
:101B80002DB73EB740916D0150916E01241B350B6E
:101B9000E091E202F091E302E217F307A0F42E1BBA
:101BA0003F0B2817390778F0AC014E5F5F4F2417C1
:101BB000350748F04E0F5F1F5093E3024093E20257
:101BC000819391939FCFF0E0E0E09CCFCF93DF93A0
:101BD0000097E9F0FC01329713821282A091E4028F
:101BE000B091E502ED0130E020E01097A1F42081F2
:101BF0003181820F931F2091E2023091E302281776
:101C0000390709F061C0F093E302E093E202DF914B
:101C1000CF910895EA01CE17DF07E8F54A815B818D
:101C20009E0141155105B1F7E901FB83EA83499112
:101C30005991C40FD51FEC17FD0761F48081918184
:101C40000296840F951FE90199838883828193818D
:101C50009B838A83F0E0E0E012968D919C9113972C
:101C60000097B9F52D913C911197CD010296820F05
:101C7000931F2091E2023091E3022817390739F6C9
:101C8000309751F51092E5021092E402B093E3020E
:101C9000A093E202BCCFD383C28340815181840FE1
:101CA000951FC817D90761F44E5F5F4F88819981EE
:101CB000480F591F518340838A819B81938382837C
:101CC0002115310509F0B0CFF093E502E093E4026D
:101CD0009ECFFD01DC01C0CF13821282D7CF10E06E
:101CE000C2E6D0E004C0FE010E94440D2196C33636
:081CF000D107C9F7F894FFCFFA
:101CF800B56206090D0000000000FFFF00000000AB
:101D08000000031DABB56206242400FFFF02030098
:101D1800000000102700000500FA00FA0064002CFB
:101D280001003C0000000000000000000000004E20
:101D380060B5620631200000010000320000000199
:101D4800000000A08601000000000005000000005F
:101D58000000007F00000036360000E60280000028
:101D6800000000F303C6032204B301BF03AC039DC4
:101D78000300000000B4018F002204B30110022602
:041D8800029B0100B9
:00000001FF
